:020000040800F2
:100000000020002079360008C1360008C1360008FB
:10001000C1360008C1360008C136000800000000E3
:10002000000000000000000000000000C1360008D1
:10003000C136000800000000C13600088320000817
:10004000C1360008C1360008C1360008C1360008B4
:10005000C1360008C1360008712100087721000868
:100060007D2100088321000889210008C13600088D
:10007000C1360008C1360008C1360008C136000884
:10008000C1360008C1360008C13600080000000073
:100090000000000000000000000000008F210008A8
:1000A000251E0008891D0008391E0008AD1D000826
:1000B000C11D0008D51D0008E91D0008C136000853
:1000C000C13600080000000000000000C136000832
:1000D000C1360008F12F000809300008253000085B
:1000E000B7210008C1360008C13600080000000032
:1000F0000000000000000000000000000000000000
:1001000000000000000000000000000000000000EF
:100110000000000000000000FD1D0008111E000886
:1001200000000000000000000000000000000000CF
:1001300000000000000000000000000000000000BF
:1001400000000000000000000000000000000000AF
:10015000000000000000000000000000000000009F
:10016000000000000000000000000000000000008F
:10017000000000000000000000000000000000007F
:10018000000000000000000000000000000000006F
:10019000000000000000000000000000000000005F
:1001A000000000000000000000000000000000004F
:1001B000000000000000000000000000000000003F
:1001C0000000000000000000000000005FF808F1DF
:1001D000034613F8012B002AFBD1181A0138704787
:1001E00010B5054C237833B9044B13B10448AFF371
:1001F00000800123237010BD680000200000000073
:10020000003B000808B5034B1BB103490348AFF39B
:10021000008008BD000000006C000020003B0008CA
:10022000164B1A6842F480321A601A689103FCD5A2
:100230005A6822F474125A605A6842F488125A605A
:100240005A6822F47C525A605A6842F480625A60BA
:100250001A6842F080721A601A689201FCD55A68D6
:1002600022F003025A605A6842F002025A605A6849
:1002700002F00C02082AFAD102F0D6BA00100240AD
:1002800073B50025FFF7CCFF06224FF4E131444857
:1002900003F0D0F80121C02003F014FA0121C1209D
:1002A00003F010FA0121C22003F00CFA0121C3204F
:1002B00003F008FA0121C6203A4C03F003FA0121A9
:1002C000C72003F0FFF900952068C0230422012114
:1002D00001F0C4FB00952068C1230422022101F033
:1002E000BDFB00952068C2230422032101F0B6FB68
:1002F00004220095C3231146206801F0AFFB20685B
:10030000302101F0F9FB2A4640F2E7312068264E01
:1003100001F0C6FC206801F0C6FA00953068C623DB
:100320000422012101F09AFB0095C72304223068C2
:10033000022101F093FB3068302101F0DDFB2A46F9
:1003400040F2E731306801F0ABFC306801F0ABFA05
:10035000206883231922012101F0C8FC206883232F
:100360003222022101F0C2FC206883234B220321A8
:1003700001F0BCFC206883230A22042101F0B6FCB2
:10038000306883231E22012101F0B0FC83233C222C
:100390000221306802B0BDE8704001F0A7BC00BF88
:1003A000040200208C0000208800002070B503F0BB
:1003B000F3F9254E3368C01AB0F57A7F43D9642328
:1003C000224C234D227828680A32B2FBF3F103FB5A
:1003D000112283230121227001F088FC22782868F1
:1003E00083230221C2F1640201F080FC2868832388
:1003F0000321227801F07AFC22782868154D8323A6
:100400000421C2F1640201F071FC832301212278EE
:10041000286801F06BFC22788323C2F16402022178
:10042000286801F063FC0C490C4803F079F80A22B3
:1004300021780A4803F0B4F80949084803F086F81F
:1004400003F0AAF9306070BD840000200000002095
:100450008C00002088000020183B000804020020C7
:10046000253B000810B5B02001F045FD04464FF0D3
:10047000804101F0F1FC064BB0201C6001F03BFD17
:100480000446044901F0E8FC034B1C6010BD00BFAA
:100490008C0000200004004088000020704700000D
:1004A00038B50E4B05461A784FF47A73B3FBF2F366
:1004B0000B4A1068B0FBF3F000F096F8044658B908
:1004C0000F2D09D8024629464FF0FF3000F03CF8C6
:1004D0002046044B1D6038BD0120FCE701000020D0
:1004E000100000200400002008B5032000F01AF8D6
:1004F0000020FFF7D5FFFFF7D1FF002008BD000067
:10050000034A044B11681B780B441360704700BF0B
:100510009000002001000020014B1868704700BFC8
:100520009000002007490302CA6803F4E06322F444
:10053000E0621204120C134343F0BF6343F4003330
:10054000CB60704700ED00E0154B30B5DC68C4F3BC
:100550000224C4F10703251D042B28BF0423062D04
:100560004FF0FF3594BF0024033C05FA03F321EA62
:100570000303A54022EA0502A340002843EA020340
:10058000ACBF00F16040074A4FEA0313DBB2ABBFD8
:1005900000F5614000F00F0080F80033135430BDC7
:1005A00000ED00E014ED00E0002807DB0123410925
:1005B000034A00F01F00834042F82130704700BF1B
:1005C00000E100E000280CDB01220649430900F0AD
:1005D0001F008240203341F82320BFF34F8FBFF329
:1005E0006F8F704700E100E00138B0F1807F0BD2DF
:1005F0004FF0E023F021054A586182F823100020D3
:10060000072298611A6170470120704700ED00E0F1
:10061000002808DB01224309034900F01F00824043
:10062000603341F82320704700E100E0704708B5CF
:10063000FFF7FCFF08BD704710B5044650B1437981
:1006400003F0FF0213B90271FFF7F5FF0123002049
:10065000637110BD0120FCE710B5044640B10223D0
:10066000037101F0B3FC002020616071207110BDA6
:100670000120FCE7012310B558B1046801F0100116
:10068000226803FA01F122EA0102226003710020CC
:1006900010BD1846FCE790F821200346022A06D038
:1006A000042282630120002283F820207047026820
:1006B000C06B116821F00E011160116821F0010179
:1006C000116001211A6C01FA02F24260002083F8E5
:1006D0002110E8E708B590F82130022B03D004235D
:1006E0008363012008BD03681A6822F00E021A60B5
:1006F0001A6822F001021A60174A93421FD014327E
:1007000093421ED0143293421DD0143293421DD016
:10071000143293421DD01432934214BF4FF08073B1
:100720004FF480130D4A5360012380F821300023D9
:1007300080F82030436B03B198470020D2E70123B3
:10074000F0E71023EEE74FF48073EBE74FF48053AC
:10075000E8E74FF48033E5E708000240000002407C
:10076000044A08B55169014202D0506101F0EAFC27
:1007700008BD00BF00040140044B054A5B68C3F399
:100780000223D35C034A1068D8407047001002402F
:10079000783B000810000020044B054A5B68C3F357
:1007A000C223D35C034A1068D8407047001002404F
:1007B000783B0008100000200F2303600A4B5A68A2
:1007C00002F0030242605A6802F0F00282605A6846
:1007D00002F4E062C2605B68DB0803F4E06303617B
:1007E00000230B60704700BF00100240036A026ADA
:1007F00070B522F001020262446882690D6822F03D
:1008000073022A438D6823F002032B43104DA84244
:100810000BD005F5A055A84207D005F58065A84284
:1008200003D005F58065A8420BD1CD6823F00803FD
:100830002B4324F44074D1E90556354323F00403D7
:100840002C43446082614A684263036270BD00BF0A
:10085000002C0140036A026A70B522F480720262C1
:100860004468C2690D6822F073022A438D6823F43C
:10087000007343EA0523114DA8420ED1CD6823F43D
:10088000006343EA052323F4806324F44054D1E950
:100890000556354344EA05140AE0094DA842F4D050
:1008A00005F58065A842F0D005F58065A842ECD03A
:1008B0004460C2614A68C263036270BD002C01409B
:1008C00000400140036A026A30B522F4805202629D
:1008D0004468C2690D6822F4E64242EA05228D6846
:1008E00023F4005343EA05330C4DA8420BD005F521
:1008F000A055A84207D005F58065A84203D005F5AC
:100900008065A84204D14D6924F4804444EA8514EA
:100910004460C2614A680264036230BD002C014039
:1009200090F83D30012B20D10223114A80F83D3050
:10093000036893420ED0B3F1804F0BD0A2F59432EE
:10094000934207D002F58062934203D002F59C32B5
:10095000934204D19A6802F00702062A03D01A686B
:1009600042F001021A60002070470120704700BF6A
:10097000002C014090F83C200346012A4FF0020071
:1009800009D01A6883F83D0051610020012283F8E4
:100990003C0083F83D20704770477047036870B58E
:1009A000DD681E690446B1070DD5AA070BD56FF0A7
:1009B00002021A61012202779B699B0769D001F04C
:1009C00098FA00232377710710D56A070ED56FF0C8
:1009D0000402236820461A61022222779B6913F4DD
:1009E000407F5CD001F085FA0023237733070FD5D1
:1009F00028070DD56FF00802236820461A610422EB
:100A00002277DB69990750D001F073FA002323772E
:100A1000F20610D5EB060ED56FF0100223682046C3
:100A20001A6108222277DB6913F4407F43D001F07A
:100A300060FA00232377F00708D5E90706D56FF0A1
:100A40000102236820461A6101F030FA320608D507
:100A50002B0606D56FF08002236820461A6100F04D
:100A600048FB700608D5690606D56FF0400223687A
:100A700020461A61FFF791FFB20622D5AB0620D5BA
:100A80006FF0200223682046BDE870401A6100F034
:100A90002FBB01F02CFA2046FFF77EFF91E701F013
:100AA00026FA2046FFF778FF9EE701F020FA20465D
:100AB000FFF772FFAAE701F01AFA2046FFF76CFF72
:100AC000B7E770BD234A036890420AD0B0F1804F67
:100AD00007D0A2F59432904203D002F58062904292
:100AE00008D14A6823F070031343CA6823F44073A3
:100AF00013430AE0184A9042F7D002F58062904210
:100B0000F3D002F580629042EFD04A6923F080036F
:100B1000134303608B68C3620B6883620D4B98427A
:100B20000BD003F5A053984207D003F58063984299
:100B300003D003F58063984201D10B69036301235D
:100B400043610369DB0742BF036923F001030361CB
:100B5000704700BF002C01400040014010B5044622
:100B600030B390F83D3003F0FF021BB980F83C2011
:100B700002F002F80223206884F83D30211DFFF7BF
:100B8000A1FF0123002084F8463084F83E3084F829
:100B90003F3084F8403084F8413084F8423084F8A3
:100BA000433084F8443084F8453084F83D3010BD3B
:100BB0000120FCE7036A026A70B522F010020262AB
:100BC000446882690D6822F4E64242EA05228D6893
:100BD00023F0200343EA0513114DA8420ED1CD683E
:100BE00023F0800343EA051323F0400324F4406418
:100BF000D1E90556354344EA85040AE0094DA84287
:100C0000F4D005F58065A842F0D005F58065A842CE
:100C1000ECD0446082614A688263036270BD00BFA9
:100C2000002C01400040014010B590F83C300446D3
:100C3000012B1DD0082A17D007D862B1042A0FD083
:100C40000120002384F83C3010BD0C2AF8D1006844
:100C5000FFF738FE02E00068FFF7C8FD0020F0E76C
:100C60000068FFF7A7FFF9E70068FFF7F3FDF5E776
:100C70000220E9E738B590F83C300446012B4FD00C
:100C80000120082A84F83C003AD006D8BAB1042AD8
:100C900026D0002384F83C3038BD0C2AF9D12068D6
:100CA000FFF710FEC3690A6943F40063C361C369B7
:100CB00023F48063C361C36943EA02232EE0206802
:100CC000FFF794FD83690A6943F008038361836930
:100CD00023F0040383618369134383610020D8E711
:100CE0002068FFF767FF83690A6943F40063836143
:100CF000836923F480638361836943EA0223ECE719
:100D00002068FFF7A7FDC3690A6943F00803C361C0
:100D1000C36923F00403C361C3691343C361DDE7FF
:100D20000220B9E770B5056A046A134E24F0010485
:100D30000462B04284691AD0B0F1804F17D0A6F592
:100D40009436B04213D006F58066B0420FD006F557
:100D50009C36B0420BD044F0010263F3071201F05D
:100D60000A0125F00A0319438261016270BD24F073
:100D700003042243F1E700BF002C0140F8B590F8CE
:100D80003C300546012B0C4600F081800120082AEA
:100D900085F83C005BD006D842B3042A35D0002346
:100DA00085F83C30F8BD0C2AF9D1D1E900272B6831
:100DB000CE68186A196A120321F480511962D96940
:100DC00020F4005021F4407141EA072102F400525E
:100DD00066F30F310243D9611A62DA69A16822F41D
:100DE0004062DA61DA6942EA01224EE02868CB68A3
:100DF00006C9FFF797FF8369A26823F00C0383619C
:100E00008369134383610020C9E72B68D1E9002778
:100E1000186ACE68196A120121F0100119629969E5
:100E200020F0A00021F4407141EA072102F0A00265
:100E300066F30F31024399611A629A69A16822F43C
:100E400040629A619A6942EA01229A61DBE72B6863
:100E5000D1E90021186A1E6AE76826F480761E62CE
:100E6000DE69120226F00306314320F4007002F41A
:100E7000007267F307110243D9611A62DA69A16847
:100E800022F00C02DA61DA690A43DA61BBE7022078
:100E900088E710B50124036A01F01F018C4023EAA2
:100EA00004030362036A8A401A43026210BD000011
:100EB00008B539B990F83E30013B18BF012373B132
:100EC000012034E0042902D190F83F30F4E70829EA
:100ED00002D190F84030EFE790F84130ECE7022380
:100EE00031BB80F83E3000680122FFF7D2FF1D4B76
:100EF00098420BD003F5A053984207D003F58063C6
:100F0000984203D003F5806398421DD1436C43F4AB
:100F100000434364134B984203D003F5A053984217
:100F20001BD1836803F00703062B16D1002008BDF0
:100F3000042902D180F83F30D5E708290CBF80F89A
:100F4000403080F84130CEE7B0F1804FE9D0064B19
:100F50009842E6D003F58063E1E7036843F00103BC
:100F60000360E3E7002C014000040040FFF7A0BF4E
:100F700008B5034669BB90F83E0093F84220C0B222
:100F80000128D2B252D1012A22D10222002936D11F
:100F900083F83E2083F8422018680122FFF779FF8A
:100FA000234B98420ED0B0F1804F0BD0A3F5943371
:100FB000984207D003F58063984203D003F59C3331
:100FC00098422ED1836803F00703062B29D1002015
:100FD00008BD042905D190F83F0093F84320C0B222
:100FE000CEE708290BBF90F8400093F8410093F832
:100FF000442093F845200CBFC0B2C0B2C0E704291A
:1010000004D183F83F2083F84320C5E708290BBFAC
:1010100083F8402083F8412083F8442083F845205A
:10102000BAE7036843F001030360D0E70120CFE78C
:10103000002C014010B50424036A01F00F018C401C
:1010400023EA04030362036A8A401A43026210BD62
:1010500008B529B990F84230012B1DD0012042E09B
:10106000042907D190F84330012BF7D1022380F8EF
:10107000433014E0082907D190F84430012BEDD11A
:10108000022380F844300AE090F84530012BE5D186
:10109000022380F8453002E0022380F842300068E5
:1010A0000422FFF7C7FF436C43F4004343640E4B35
:1010B00098420ED0B0F1804F0BD0A3F594339842F4
:1010C00007D003F58063984203D003F59C33984220
:1010D00004D1836803F00703062B03D0036843F0B1
:1010E00001030360002008BD002C0140FFF7B0BFE2
:1010F00070477047026802F10C0353E8003F23F485
:1011000090730C3242E8003102680029F2D102F1FA
:10111000140353E8003F23F0010302F1140C4CE8E0
:1011200000310029F3D1036B012B0BD102F10C0329
:1011300053E8003F23F0100302F10C0C4CE800319F
:101140000029F3D1202380F8423000230363704745
:1011500010B504460268C168136923F440530B4379
:10116000136183680069D1680343606921F4164103
:101170000343E06921F00C0103430B43D36053693F
:10118000A16923F440730B4353611A4B9A4220D157
:10119000FFF702FB1923E1695843D4E90023B1F5B5
:1011A000004F4FF0640117D15B00B0FBF3F0B0FBD0
:1011B000F1F401FB1400C3003233B3FBF1F303F08D
:1011C00007015B0001EB041103F4F8730B44936017
:1011D00010BDFFF7D1FADDE79B00B0FBF3F0B0FBE9
:1011E000F1F401FB14031B013233B3FBF1F303EB06
:1011F0000413ECE700380140704710B5044648B3CB
:1012000090F8413003F0FF021BB980F84020FFF74F
:10121000F3FF2423226884F84130D368204623F466
:101220000053D360FFF794FF236800201A6922F46B
:1012300090421A615A6922F02A025A61DA6842F42D
:101240000052DA602023606484F8413084F8423030
:10125000606310BD0120FCE710B5044668B390F848
:10126000413003F0FF021BB980F84020FFF7C4FFB4
:101270002423226884F84130D368204623F40053A5
:10128000D360FFF765FF236800201A6922F49042BB
:101290001A615A6922F022025A615A6942F0080220
:1012A0005A61DA6842F40052DA602023606484F8FC
:1012B000413084F84230606310BD0120FCE790F8B3
:1012C0004130202B10D189B182B1C28482840023A5
:1012D000212201620168436480F84120CA681846EF
:1012E00042F08002CA6070470220704701207047B8
:1012F00008B50023406AC385C38401F03BFE08BDE6
:10130000704790F8423007B5222B42D181680268BD
:10131000B1F5805F836A3FD1016900293FD15268EE
:10132000C2F3080223F8022B8362C38D013B9BB2F8
:10133000C385002B2DD10268D16821F02001D16036
:10134000D16821F48071D160516921F001015161AE
:10135000202280F842204363026B012A026828D1D0
:10136000036302F10C0353E8003F23F0100302F182
:101370000C0C4CE800310029F3D11368DB0605D5CD
:1013800001911368019353680193019B818DFFF7CD
:10139000B7FF03B05DF804FB39B9016929B9526898
:1013A000D2B21A70836A0133BEE7526802F07F023C
:1013B000F7E701F0D9FDECE7036873B51A68044656
:1013C0001607D9685D6908D1960668D58D0666D579
:1013D00002B0BDE87040FFF794BF05F0010001F4D2
:1013E000907505435BD0D60705D5CD0542BF636C2C
:1013F00043F001036364530704D518B1636C43F0F1
:1014000002036364960704D518B1636C43F00403C8
:101410006364150707D501F0200303431EBF636C07
:1014200043F008036364636C002B32D0920604D54A
:101430008B0602D52046FFF764FF266820467369B5
:10144000626C03F0400302F0080253EA020522D066
:10145000FFF750FE73695E0618D5226802F1140387
:1014600053E8003F23F04003143242E800310029E2
:10147000F3D1E06B50B1744B4363FFF72BF940B1EC
:10148000E06B436B02B0BDE870401847204601F0A6
:1014900071FD02B070BD01F06DFD6564F9E7206B70
:1014A000012840F09480D50640F19180C80640F1B3
:1014B0008E80002201921A6801925A680192019A64
:1014C0005A6952064DD5E16B0A68526892B2002AF9
:1014D000DFD0A08D9042DCD9E2858A69202A36D0FF
:1014E00003F10C0252E8002F22F4807203F10C0089
:1014F00040E800210029F3D103F1140252E8002F43
:1015000022F0010203F1140040E800210029F3D188
:1015100003F1140252E8002F22F0400203F11400FC
:1015200040E800210029F3D1202284F842202163E1
:1015300003F10C0252E8002F22F0100203F10C001C
:1015400040E800210029F3D1E06BFFF7A4F8022363
:101550006363E38DA18DC91A89B22046FFF7D0FEDF
:1015600097E7E28DE18D92B289B2002991D0A18DE9
:10157000891A89B200298CD003F10C0252E8002F9D
:1015800022F4907203F10C0545E800200028F3D105
:1015900003F1140252E8002F22F0010203F11405B6
:1015A00045E800200028F3D1202284F8422020635F
:1015B00003F10C0252E8002F22F0100203F10C0597
:1015C00045E800200028F3D102236363C5E716062F
:1015D00028D50D0626D594F84120212A7FF459AF4D
:1015E000A168226AB1F5805F17D12169A9B932F8E3
:1015F000021BC1F3080159602262E28C013A92B2E7
:10160000E284002A7FF445AFDA6822F08002DA60D3
:10161000DA6842F04002DA603BE7511C216212783E
:101620005A60EAE750067FF534AF4A067FF531AFDE
:10163000DA68204622F04002DA60202384F8413044
:1016400001F095FC25E700BFF112000890F840304A
:10165000012B11D02423026880F84130D36823F095
:101660000C0343F00803D360202380F841300023AB
:1016700080F84030184670470220704790F840309C
:10168000012B11D02423026880F84130D36823F065
:101690000C0343F00403D360202380F8413000237F
:1016A00080F84030184670470220704790F841207B
:1016B00090F84200104370470023C2854364222300
:1016C0008285026980F84230816203681AB1DA6863
:1016D00042F48072DA605A69002042F001025A61D5
:1016E000DA6842F02002DA60704770B590F8426024
:1016F000202E07D141B13AB100240463FFF7DCFF8B
:10170000204670BD0220FCE70120FAE7836810B58F
:1017100004462BB10322014698470023C4E9023353
:1017200010BD836810B5044613B1032201469847E3
:10173000204610BD4B1E032B00D9FEE78900081F71
:10174000704700000139435C13F0100004D00229F7
:1017500016D80C4A32F81100DB0712D503290FD82E
:10176000DFE801F00205080B40F00100704740F08F
:101770001000704740F48070704740F4805070470C
:10178000FEE77047323B00080139032900D9FEE724
:10179000014B585C704700BF2E3B000801390329FC
:1017A00000D9FEE7014B585C704700BF2A3B000898
:1017B0002DE9F0410E460446FFF7BCFF06F106088E
:1017C00005463146204604EB0818FFF7DDFFD8F840
:1017D00008302BB1C24323691A61DA680243DA6028
:1017E000771E04EB47039B880B2B49D8DFE803F0F7
:1017F00051181818060618184A4A4A2AE35DDE06E8
:1018000004D5294604F11000FFF770FCE35DD8070A
:1018100036D5294604F11000BDE8F041FFF7A6BB1C
:10182000E35DD90604D5294604F11000FFF710FC4A
:10183000E35DDA0724D5294604F11000BDE8F04144
:10184000FFF736BB294604F11000FFF791FB314644
:101850002046FFF7A3FF014606462046FFF772FF2A
:1018600025692B6A1843D8F80830286243B13146FD
:101870002046FFF789FFC3432B61EB681843E860FC
:10188000BDE8F081294604F11000BDE8F041FFF702
:101890006FBB23691B68DB07F2D404F11000BDE8BD
:1018A000F041FFF73DB870B5012504462946861C76
:1018B00036F8023F23B129462046FFF779FF002181
:1018C0000135052DF4D1A36E3BB16FF00102236900
:1018D0001A61DA6842F00102DA6049B123691B68D3
:1018E000DB0705D404F11000BDE87040FFF718B81D
:1018F00070BD00002DE9F0438DB0044698460F46B8
:10190000FFF718FF4FF6FF73164605930546236948
:10191000C0B95B6B002206930123CDE902329DF82A
:101920005030CDE90922079208920B92019204935C
:101930000B2E1DD8DFE806F00F1545484A535557C2
:101940005B596264042801D19B6BE3E708280CBF54
:10195000DB6B1B6CDEE705922A4605A904F110003B
:1019600004E010232A46059305A9E018FFF75CF967
:10197000013F04EB47039E8006B3B8F1FF3F1DD043
:10198000404601F055F9A84264D140463249083E2C
:1019900000F0D8FE032E05D8404601F053FE00218A
:1019A00001F090FE40462C4900F006FF10F4801F25
:1019B0000CBF01221022E35D1343E3550DB0BDE8D7
:1019C000F08320230593C7E73023FBE760232A46F3
:1019D00005A904F110000593FFF74CF9C8E770233F
:1019E000F5E75023EEE74023ECE7022301932A4674
:1019F00001A904F11000FFF7C1F9B9E70A23F5E7DF
:101A00004046154900F0D8FE10F4801000D0FEE7E3
:101A1000012304F110092A46019001A948460293C6
:101A2000FFF7ACF939462046FFF7B8FE431EE25CEB
:101A3000014642F00102E2540B2204EB43039A8078
:101A400002232046CDE90133FFF774FE01A90246C7
:101A50004846D0E7FEE700BF803C000870B4DCB227
:101A6000242C9DF80C5009D80E4E03F4E06356F870
:101A700024402343039570BCFFF73CBF03F0C0062E
:101A8000C02E0CD1C92C0AD8074C03F03F0654F8DD
:101A90002660044C03F4E06354F82640E9E74FF075
:101AA000FF33E7E7543F00082C3F000801211030C6
:101AB000FEF760BF0369186800F00100704710B5B9
:101AC00002460C46FFF7F6FF80B9CB68DB070ED560
:101AD000CB68104623F00103CB60FFF7E7FF6FF000
:101AE00001032361E36843F00103E36010BD104686
:101AF000BDE81040FFF7DABF0B460169013B8B627E
:101B0000FFF7DDBF1D4A0346904224D0B0F1804F5D
:101B100023D0A2F59432904221D002F58062904207
:101B20001FD002F5006290421DD002F58062904203
:101B30001BD002F59632904219D002F58062904295
:101B400017D04FF6FF700E4A934214D04FF6FF7332
:101B5000984211D1FEE70020F5E70120F6E70220C8
:101B60007047032070470420704705207047062007
:101B70007047072070470820704700BF002C0140C5
:101B800000480140014670B5044651F8100FFFF7B8
:101B9000B9FF0546084600F007FF0023084A04F194
:101BA000600642F82530E36004F1B005B54204D088
:101BB000103D2846FFF7B5FDF8E7204670BD00BF91
:101BC00094000020F8B504460846FFF79BFF236900
:101BD00003B1FEE71B4D04F10C0245F820200E2254
:101BE00004F110063046C4E90C33C4E90E33C4E9ED
:101BF0001033C4E91623216184F82C30A36484F8DF
:101C00004C3084F84D30E46000F03CFE04F1600597
:101C100004F1B00728461035FFF778FDBD42F9D131
:101C200000234FF6FF72C4E90033C4E90632C4E969
:101C30000833A360636180233046A362BDE8F840A7
:101C4000FEF78CBF9400002010B586B01422044625
:101C5000002101A801F070FE0023694601A800934D
:101C6000FEF7AAFD206900F0AFFF012802D002288C
:101C70000FD0FEE7049CFEF77FFDB4F5C06F05D0E2
:101C80000BD824F48074B4F5806F00D1400006B006
:101C900010BD059CFEF780FDEFE7B4F5E06FF4E7BB
:101CA000012A38B505460C460BD0022A16D004B1DD
:101CB000013C29692846CC62EC61BDE83840FFF759
:101CC000FEBEFFF7C1FF084BB0FBF3F044432A69A7
:101CD000230C93620133B4FBF3F4E8E7FFF7B4FF9E
:101CE000B0FBF4F4F3E700BF40420F00F8B505463F
:101CF00014461A46FFF71EFD2B69822A9E6A074684
:101D000006F1010629D01FD8102A11D852BB4FF670
:101D1000FF722969CB6A934203D1B4F5803F08BFB3
:101D20001C4637BB4C632846BDE8F840FFF7C7BEEA
:101D3000812AECD12846FFF787FF124BB0FBF3F066
:101D40006043B0FBF6F4E2E7832AE0D1DB6A03FBF1
:101D500004436424B3FBF4F4D9E72846FFF774FF87
:101D60006643EEE7DB6A03FB044301249440013C35
:101D7000F0E7042F01D18C63D5E7082F0CBFCC63AB
:101D80000C64D0E740420F0010B5074C206810B13A
:101D90000430FEF703FEE06920B1BDE810400430D6
:101DA000FEF7FCBD10BD00BF94000020034B186877
:101DB00010B10430FEF7F2BD704700BF9400002060
:101DC000034B586810B10430FEF7E8BD704700BF00
:101DD00094000020034B986810B10430FEF7DEBD7C
:101DE000704700BF94000020034BD86810B1043046
:101DF000FEF7D4BD704700BF94000020034B186964
:101E000010B10430FEF7CABD704700BF9400002037
:101E1000034B586910B10430FEF7C0BD704700BFD6
:101E200094000020034B986910B10430FEF7B6BD52
:101E3000704700BF94000020034B186A10B10430B3
:101E4000FEF7ACBD704700BF940000200022C0E93F
:101E50000022C0E902227047F8B504460E4600F1A0
:101E6000600500F1B00728461035FFF7EFFFBD42CF
:101E7000F9D10023204631462361FFF7A3FE204617
:101E8000F8BD826810B50AB901F036FEC368BDE836
:101E90001040184708B500B9FEE700F0F1FC0068F3
:101EA000836E13B16030FFF7ECFF08BDFFF7F2BFA0
:101EB00010B500B9FEE7037F013B072B10D8DFE820
:101EC00003F004140F100F0F0F12012400F0D8FCC0
:101ED0000068063400EB041083680BB1FFF7D1FFF4
:101EE00010BD0324F2E70424F0E70224EEE7FFF735
:101EF000DFBFFFF7DDBF01F061BC01F067BC000090
:101F000086B0042841D8DFE800F003101C28340014
:101F10001F4B20489A6942F004029A619B6903F0C2
:101F200004030193019B06B07047194B1A489A6944
:101F300042F008029A619B6903F008030293029B36
:101F4000F1E7134B15489A6942F010029A619B69B8
:101F500003F010030393039BE5E70D4B10489A69C8
:101F600042F020029A619B6903F020030493049BD2
:101F7000D9E7074B0B489A6942F040029A619B6986
:101F800003F040030593059BCDE70020CBE700BF9E
:101F90000010024000080140000C01400010014008
:101FA000001401400018014008B5074900F004FC86
:101FB000C0F3C430012802D0022802D0FEE700207E
:101FC00008BD1020FCE700BF083F00080268094B6D
:101FD0009A420DD103F5CE331A6942F000521A61CC
:101FE0001A6922F000521A61DA6922F00052DA61AD
:101FF000704700BF0074004010B5094986B0044620
:1020000000F0B8FB019048B12046FFF7CDFF014634
:1020100001A8FEF72FFB01A8FEF71EFB06B010BDBE
:10202000083F0008F8B51349064600F0A3FBFFF788
:1020300069FD114F054657F8203073B9B020FFF7FE
:102040005AFF0C490446304600F094FB01462046F6
:10205000FFF702FF57F825301C601C6844B120468A
:10206000FFF790FD2046BDE8F840B021FFF745BFDF
:10207000F8BD00BF803C000894000020FEF74CBA79
:10208000704708B5FEF73CFAFEF7D1FAFFF7F8FF04
:1020900008BD70470F4B84B0DA6942F08052DA61B4
:1020A000DA6902F080520192019A9A6942F00102C3
:1020B0009A619A6902F001020292029A5A6942F008
:1020C00040025A615B6903F040030393039B04B031
:1020D000704700BF001002400C4BD3F8FC20D20127
:1020E0005EBFD3F8FC2042F08072C3F8FC200022CF
:1020F000074B5A601A6842F001021A6000BF00BF25
:1021000000BF5868B0FA80F04009704700ED00E069
:10211000001000E008B5FFF7BDFFFFF7DDFFFEF799
:10212000E3F9FFF7B6FFFEF77BF8BDE8084001488A
:10213000FEF782BA080000200023C0E90033C0E99E
:10214000023370470023012803F101020AD114224F
:10215000DBB25343054A181D1044816829B11A4463
:102160001369184713464008EDE77047B800002090
:102170000120FEF7F5BA0220FEF7F2BA0420FEF7BE
:10218000EFBA0820FEF7ECBA1020FEF7E9BA08B55E
:102190002020FEF7E5FA4020FEF7E2FA8020FEF765
:1021A000DFFA4FF48070FEF7DBFABDE808404FF429
:1021B0000070FEF7D5BA38B506244FF48065A8B292
:1021C000FEF7CEFA013C4FEA4505F8D138BD0000D4
:1021D000344A08B51046062300F8043BFFF7ACFF6D
:1021E000072302F118001375FFF7A6FF082302F179
:1021F0002C0082F82830FFF79FFF092302F14000EE
:1022000082F83C30FFF798FF0A23172102F15400AF
:1022100082F85030FFF790FF02F1680082F86410F6
:10222000FFF78AFF02F17C0082F87810FFF784FF45
:1022300002F1900082F88C10FFF77EFF02F1A400FB
:1022400082F8A010FFF778FF82F8B410282102F17D
:10225000B800FFF771FF02F1CC0082F8C810FFF759
:102260006BFF02F1E00082F8DC10FFF765FF02F17E
:10227000F40082F8F010FFF75FFF02F5847082F837
:102280000411FFF759FF02F58E7082F81811FFF75D
:1022900053FFBDE8084002F5987082F82C11FFF753
:1022A0004BBF00BFB800002038B5054CA4F5A075A1
:1022B000143C201DFFF735FAAC42F9D138BD00BF00
:1022C000F80100209F4B82B09A69013842F0010268
:1022D0009A619B6903F001030193019B2F2838D871
:1022E000DFE810F030003900400047004C00530098
:1022F00058005F0064006B00740079008000890062
:102300008E0095009E00A700AC00B300BC00C10089
:10231000C800370037003700CD00D4003700370041
:1023200037003700D900DE00E500EC00F300F900CB
:10233000FE00030108010D01120117011C0121011A
:1023400026012B01804A536843F0E06343F0010308
:10235000536002B070477C4A536823F0010343F096
:10236000E063F5E7784A536843F0E06343F0020323
:10237000EEE7754A536823F00203F0E7724A5368A8
:1023800043F0E06343F00403E2E76F4A536823F04D
:102390000403E4E76C4A536843F0E06343F0080346
:1023A000D6E7694A536823F00803D8E7664A5368BA
:1023B00043F0E06343F03003CAE7634A536823F015
:1023C000300343F0E06343F01003C1E75E4A536813
:1023D00023F03003C3E75C4A536843F0E06343F003
:1023E000C003B5E7584A536823F0C00343F0E063E5
:1023F00043F04003ACE7544A536823F0C003AEE710
:10240000514A536843F0E06343F44073A0E74E4AF7
:10241000536823F4407343F0E06343F4007397E799
:10242000494A536823F4407343F0E06343F48073F4
:102430008EE7454A536823F4407390E7424A536855
:1024400043F0E06343F4406382E73F4A536823F478
:10245000406343F0E06343F4006379E73A4A53682A
:1024600023F440637BE7384A536843F0E06343F466
:1024700080536DE7344A536823F480536FE7324A40
:10248000536843F0E06343F4004361E72E4A536826
:1024900023F4004363E72C4A536823F0E06357E7D3
:1024A000294A536823F0E06343F0807350E7264ADB
:1024B000536823F0E06343F0007349E7224A53680E
:1024C00023F0E06343F0806342E71F4AD36943F09F
:1024D0000103D3613DE71C4AD36923F00103F8E708
:1024E000194AD36943F00203F3E7174AD36923F08B
:1024F0000203EEE7144AD36943F00403E9E7124A02
:10250000D36923F00403E4E70F4AD36943F00803D7
:10251000DFE70D4AD36923F00803DAE70A4AD369F3
:1025200043F01003D5E7084AD36923F01003D0E73E
:10253000054AD36943F40063CBE7034AD36923F424
:102540000063C6E7001002400000014091FAA1F3C9
:10255000B3FA83F370B50D0E0F2691FAA1F1B1FA1B
:1025600081F144599B0006FA03F3890024EA03042D
:102570008A402243425170BD91FAA1F3B3FA83F32A
:1025800070B50D0E042691FAA1F1B1FA81F144590A
:102590009B0006FA03F3890024EA03048A402243DD
:1025A000425170BD431C04D00C3151F80C3C5A1CF4
:1025B00001D100207047834201F10C01F5D10120C7
:1025C00070470000431C2DE9F34106460F4600D139
:1025D000FEE7594B00F00F02C0F3031001F00708AB
:1025E00053F82240FFF78CFCB8F1010F054615D1D6
:1025F00094FAA4F3B3FA83F30321200E2A589B0024
:1026000001FA03F322EA030294FAA4F3B3FA83F380
:102610009B00994011432950012213E0C7F3062083
:10262000B8F1030F0AD801A353F828F03F26000899
:1026300019260008A3260008B1260008FEE7FFF7C8
:1026400041FE08222146284608F1FF38FFF77EFFA9
:10265000B8F1010F06D817F0080218BF042221466E
:10266000FFF78AFF94FAA4F2230EB2FA82F2E95835
:102670000F239200934094FAA4F2B2FA82F2C7F3C5
:1026800001170B409200012F23FA02F312D0022F00
:102690003BD0082B21D1042221462846FFF756FFC4
:1026A0001BE07F2801D10922CCE7FFF70BFEFAE7F8
:1026B0000022C7E7042B04D1082221462846FFF751
:1026C00045FF230A93FAA3F3B3FA83F20123E968DF
:1026D000934021EA14210B43EB60184B9A6942F0B6
:1026E00001029A619B6903F001030193019BA6F12A
:1026F0000D03012B14D8124A536823F0E06343F012
:102700008063536002B0BDE8F081042B04D108223D
:1027100021462846FFF71AFFEB6823EA1423DBE77C
:102720000F2E02D0133E012EECD8054A536823F039
:10273000E06343F00073E4E7383B00080010024018
:1027400000000140431C06D17047834202D18968D2
:10275000FFF738BF0C310B685A1CF6D1FEE70B6847
:102760005A1C01D100207047834201D1486870474C
:102770000C31F4E7431C01D0FFF7F1BF0020704794
:102780004B6813B94FF0FF307047834201D108689E
:1027900070470C31F4E708B1FFF7F2BF4FF0FF309C
:1027A000704703460868421C00D17047984201D127
:1027B000886870470C31F5E7431C01D0FFF7F1BF83
:1027C000704703468B42084604D01BB100290CBF5A
:1027D0001846002070470000104B1A6842F00102B2
:1027E0001A6059680E4A0A405A601A6822F08472C8
:1027F00022F480321A601A6822F480221A605A6821
:1028000022F4FE025A604FF41F029A600022DA623C
:102810004FF00062034B9A60704700BF0010024007
:102820000000FFF800ED00E0104A536803F00C03CD
:10283000082B19D153685168C3F38343C90341BFBF
:10284000D16A0B4801F00F0101314CBFB0FBF1F12F
:10285000084902334B4352680749C2F303128A5CAA
:10286000D340064A13607047014BF4E70010024062
:1028700000127A0000093D00803B00081000002093
:102880000438704703683F4A8AB0934218D102F572
:102890006442916941F400619161926902F40062BD
:1028A0000192019A384A934217D1384BDA6942F0C3
:1028B0002002DA61DB6903F020030693069B5FE0E8
:1028C000B3F1804F17D1314AD16941F00101D16193
:1028D000D26902F001020292029A2D4A934218D163
:1028E0002A4B9A6942F480329A619B6903F48033DF
:1028F0000793079B44E0274A934218D102F503321D
:10290000D16941F00201D161D26902F00202039261
:10291000039A214A934218D11C4B9A6942F400321F
:102920009A619B6903F400330893089B28E01B4AD3
:10293000934218D102F50232D16941F00401D1610C
:10294000D26902F004020492049A154A934217D104
:102950000E4B9A6942F480229A619B6903F48023AA
:102960000993099B0CE00F4A93429BD1074BDA690C
:1029700042F01002DA61DB6903F010030593059B56
:102980000AB07047002C01400014004000100240C3
:1029900000400140000400400044014000080040A5
:1029A00000480140001000400368274A93420DD1BF
:1029B00026498A6922F400628A61254A93420DD130
:1029C00002F5FE32D36923F020033BE0B3F1804FE0
:1029D0000ED11E49CA6922F00102CA611D4A934202
:1029E0000ED102F55042936923F48033936170470E
:1029F000194A93420DD11549CA6922F00202CA61EF
:102A0000164A93420DD102F54C42936923F40033E8
:102A1000ECE7134A93420DD10C49CA6922F0040233
:102A2000CA61104A9342E2D102F54842936923F405
:102A30008023DBE70C4A9342BFD102F50032D36911
:102A400023F01003D3617047002C014000100240B6
:102A500000140040004001400004004000440140D8
:102A6000000800400048014000100040431C26D0F0
:102A70001B4B984226D010D8A3F54063984223D030
:102A800007D8B0F1804F21D0A3F5806398421FD0C2
:102A9000FEE7144B98421DD0FAE7134B98421BD027
:102AA00008D8A3F5C053984216D003F5A053984216
:102AB00014D0EDE70D4B9842EAD11A2070476FF021
:102AC0000D007047372070471E2070471C2070474C
:102AD0001D20704736207047192070471820704716
:102AE0000014004000100040004401400048014034
:102AF000431C26D01C4B984226D010D8A3F5406327
:102B0000984223D007D8B0F1804F21D0A3F580633D
:102B100098421FD0FEE7154B98421DD0FAE7144BA0
:102B200098421BD008D8A3F5C053984218D003F59B
:102B3000A053984216D0EDE70E4B9842EAD11A20E6
:102B400070476FF00D007047372070471E207047A8
:102B50001C2070471D207047362070471920704791
:102B60001B207047182070470014004000100040E0
:102B7000004401400048014038B50446FFF782FE9A
:102B80000068FFF773FFD4E91212FDF7DDFC20683F
:102B9000FFF76CFFFDF708FD22681046FFF7A8FF5E
:102BA00005461046FFF762FF85420BD0D4E91212AA
:102BB0002846FDF7C9FC2068FFF79AFFBDE83840BA
:102BC000FDF7F2BC38BD0000431C24D0144B9842E2
:102BD00023D00ED8A3F5406398421ED005D820F428
:102BE0008060B0F1804F18D0FEE70E4B984214D0B1
:102BF000FAE70D4B98420CD008D8A3F5C053984281
:102C000007D003F5A053984203D0EDE7074B984255
:102C1000EAD102207047002070470120704700BFB2
:102C200000140040001000400044014000480140F2
:102C300008B50649FFF7C0FDC0F3C430431E032B9F
:102C400000D9FEE78000043808BD00BF803C0008C2
:102C50002DE9F04F87B09846109B04468A46406D98
:102C6000664991460193FFF785FD65498346A06D4E
:102C7000FFF780FD63490646E06DFFF77BFD624983
:102C80000546206EFFF776FD0746BBF1000F00F00A
:102C9000B180A26D013202D0002E00F0AB80E26D57
:102CA000013202D0002D00F0A580226E013202D048
:102CB000002F00F09F8031465846FFF782FD034603
:102CC000206020B90146FFF77CFD034620602946BD
:102CD0001846FFF776FD39462060FFF772FD206049
:102CE000002800F08780494B98424CD103F55843A7
:102CF000DA6842F48042DA60DA6822F48042DA600C
:102D00009A6942F480429A619B6903F48043039379
:102D1000039B2523A4F864303849606DFFF712FD4A
:102D20001EB13749A06DFFF70DFD2DB13549E06D9E
:102D3000FFF708FD4FF480752FB13349206E45F43D
:102D40000075FFF7FFFC94F86520314B271D43F811
:102D5000227023680022C4E9013A019B94F96400BF
:102D6000C4E904380C230121C4E90635C4F80C90E9
:102D70002262FDF7E9FB3846002E36D107B0BDE8E8
:102D8000F04FFEF769BA234B984215D103F5E633AD
:102D90001A6942F400321A611A6922F400321A6187
:102DA000DA6942F40032DA61DB6903F40033049338
:102DB000049B4FF49373ADE7174B9842ACD103F5E6
:102DC000E4331A6942F480221A611A6922F48022DB
:102DD0001A61DA6942F48022DA61DB6903F4802344
:102DE0000593059B40F2272394E707B0BDE8F04F19
:102DF000FEF703BA07B0BDE8F08F00BF443C0008FF
:102E0000083C0008CC3B0008903B0008003801401B
:102E1000F8010020004400400048004010B4019C2C
:102E200018B1019410BCFFF713BF10BC704700002D
:102E300008B5074B90F8652053F82200FEF736FCE2
:102E400000F02200A0F122035842584108BD00BF03
:102E5000F801002008B5074B90F8652053F82200D0
:102E6000FEF724FC00F02100A0F121035842584154
:102E700008BD00BFF801002070B50E46054610B928
:102E80004FF0FF3070BDFFF7D3FF04460028F7D1A5
:102E9000294611F8663F0122337095F86500034B0F
:102EA00053F82000FEF721FC2046EBE7F801002054
:102EB00038B50D460446B8B1FFF7BAFFA0B994F98A
:102EC0006400E564FDF77EFB94F86500074B04F1B0
:102ED000660153F820000122FEF707FC94F9640014
:102EE000BDE83840FDF760BB38BD00BFF8010020E9
:102EF00038B515460446B8B1016590F96400FDF790
:102F000061FBB4F87630E16E9BB294F86500194429
:102F1000064BAAB253F82000FEF7D1F994F96400E9
:102F2000BDE83840FDF740BB38BD00BFF8010020C8
:102F300048B1836D013306D190F86520024B53F8F8
:102F40002200FEF783BB7047F801002048B1836D73
:102F5000013306D190F86520024B53F82200FEF7AA
:102F60008DBB7047F8010020836C04381847C36C90
:102F70000438184730B5044650F8043985B01D6848
:102F800015F0010512D0002200921A6800925B68C9
:102F90000093009BFFF74CFF40BB0122204604F149
:102FA000620105B0BDE83040FEF79FBB196811F023
:102FB000020106D001951A6801925B680193019B9A
:102FC000E8E71A6812F0040206D002911A68029229
:102FD0005B680293029BDDE719680907DAD5039263
:102FE0001A6803925B680393039BD3E705B030BD77
:102FF00008B52520FDF70CFB024B1868BDE808401A
:10300000FEF7DAB9F8010020262008B5FDF700FB2D
:10301000034B586818B1BDE80840FEF7CDB908BDAC
:10302000F8010020272008B5FDF7F2FA034B986855
:1030300018B1BDE80840FEF7BFB908BDF80100208F
:1030400003460A4910B508680344EFF30882934227
:1030500005D90C224FF0FF30054B1A6010BD054A10
:10306000054C121B9342F4D20B60F7E714000020CA
:10307000700400200020002000040000FEE7000093
:103080001622024B4FF0FF301A6070477004002088
:1030900001207047B0F80831B0F80421981A00F008
:1030A0003F007047B0F80831B0F804219BB293425A
:1030B0001ABFD0F8FC30985C4FF0FF30704790F8A2
:1030C0000631B0F80A01C0B2834227BFC3F13F0303
:1030D000C018C01A00F1FF30704707B503688DF8BB
:1030E000071001225B680DF10701984703B05DF8F6
:1030F00004FB13B50DF107010446FFF7BDFE88B9C7
:10310000B4F87430B4F87020013303F03F039342F5
:1031100008D0B4F874209DF80700A16E92B28854CC
:10312000A4F8743002B010BDB0F87610826F10B5FC
:103130000A4402F03F02A0F87620B0F87610B0F80A
:10314000722089B28A421AD0B0F876404032A4B2D6
:10315000B0F87610121B544289B204F03F0402F01A
:103160003F02C1F1400158BF62428A4228BF0A466D
:1031700004498267FFF7BCFE4FF0FF3010BD00200E
:10318000FCE700BF293100082DE9F8430368044635
:103190009B6888461646984701232374D4F8EC3080
:1031A000B4F8067101338146C7F1400709D194F89C
:1031B000103133B1002304F1940084F81031FFF78B
:1031C000B7FE236820469B6898470028F9D035460B
:1031D000BD4225D84D4523D8B4F80631D4F80001B6
:1031E0005A19402A184430D82A46414600F0E2FBDA
:1031F0002F46B4F806311D4405F03F05A4F80651EA
:1032000004F194052846FFF725FE30B93A462846D2
:103210001549C4F80C71FFF76BFE3046BDE8F88322
:103220004F4528BF4F4623683A4641465B682046D3
:103230009847236820469B689847ED1BB844B4F82C
:1032400006718146C7F14007C2E7C3F140073A461D
:10325000414600F0AFFBD4F80001EA1B08EB070180
:1032600000F0A8FBC5E700BF29310008C0F8F03026
:10327000009B914208BF4FF0FF31C0F8F43000F1DD
:103280001103C0F8FC300023C0E93A2100F15102DB
:10329000A0F80831C0E94023A0F80A317047037C48
:1032A00070B504460D46A3B1FDF736F90646B4F8ED
:1032B0000621B4F80A319BB29A420AD0002DF8D008
:1032C000FDF72AF9801B8542F1D8B4F80A31A4F839
:1032D000063170BD0021FFF7E2BF0000CBB2242B06
:1032E00008D80E4A01F4E06152F823301943C0F8BF
:1032F000EC10704701F0C002C02A0CD1C92B0AD8CB
:10330000074B01F03F0253F82220044B01F4E06127
:1033100053F82230EAE74FF0FF31E8E7543F000866
:103320002C3F0008CBB2242B08D80E4A01F4E061F0
:1033300052F823301943C0F8E810704701F0C0027A
:10334000C02A0CD1C92B0AD8074B01F03F0253F811
:103350002220044B01F4E06153F82230EAE74FF0F9
:10336000FF31E8E7543F00082C3F000873B54FF4E5
:103370007A7316460022C0E901231D4B0446036000
:103380004FF0FF33C0F8EC301A4B0D46984215D180
:10339000C321FFF7A3FFC221FFF7C4FF4FF0FF33A4
:1033A000012E08BFC4F8EC3000932046D4E93A213E
:1033B0004FF0FF33FFF75AFF02B070BD0E4B0F49BD
:1033C0009A680F4B53F82200FFF7D4F9854202D1D7
:1033D000C3212046DDE70B492846FFF7DCF9074902
:1033E000C4F8EC002846FFF7D6F9C4F8E800D5E7A2
:1033F000F83F0008040200202C3F0008443C00086D
:10340000543F0008083C0008D0F8EC3010B50133F8
:1034100004460ED10368DB68984794F8103143B92D
:10342000012304F1940084F81031BDE81040FFF747
:103430008DBD10BD73B5144602F00703023BDBB22D
:10344000042B80F8112196BF1A4A0022D25C04F0A6
:103450003003302B0546C0F8141107D14FF4C06378
:103460000132082A09D0092A1BD0FEE714F02003F4
:103470001CD04FF480630132F3E70022C4F3C00490
:1034800005F19406640330460094FFF7C7FC284614
:10349000FFF7BAFF3046084902B0BDE87040FFF7B9
:1034A00007BD4FF48052E9E71A46E7E7082AFBD048
:1034B000DBE700BFE83F0008F330000810B5044622
:1034C000FFF7A2FFB4F80821B4F8043192B29A428F
:1034D00017BFD4F8FC204FF0FF30D05C01331CBF85
:1034E00003F03F03A4F8043110BD0000002202499C
:1034F0000248FFF73BBF00BF004400400402002029
:1035000070B505460C46084649B1FCF761FE2B68CC
:10351000024621462846BDE870405B68184770BDEA
:1035200008B5FFF7EDFF08BD08B50249FFF7E8FF52
:1035300008BD00BF273B000838B50546FFF7E0FF90
:1035400004462846FFF7F0FF204438BDFFF7F4BFDC
:103550000023012A98BF0A2230B58BB00C468DF8A3
:10356000243009A92546B4FBF2F404FB1253DBB264
:10357000092B94BF30333733DBB2AA4201F8013D47
:10358000F0D9FFF7BDFF0BB030BD10B422B902680F
:1035900010BC1268C9B2104710BCD2B2FFF7D8BF36
:1035A000FFF7F3BF10B5044600F0F6F8E0602368BB
:1035B00020465B699847002808DA00F0EDF8E368D8
:1035C000C01AA3689842F2D34FF0FF3010BDF8B58F
:1035D00007460D460C468E18B44201D1601BF8BD5B
:1035E0003846FFF7DFFF431CF8D004F8010BF3E780
:1035F0002DE9F0410746884616461D4673B1002462
:103600003846FFF7CFFF431C05D0404503D0305567
:103610000134A542F4D12046BDE8F0811C46FAE70A
:1036200008B50320FCF77EFFBDE8084000F0C4B8F1
:1036300008B5AFF30080FCF723FEFCF7B7FE00F0FF
:10364000ADF8FAE7C0F30312042A034610B50ED80A
:103650000020084AD9B252F8044B8C4203D103F43B
:10366000E063184310BD01302528F4D1FAE7252086
:10367000F8E700BF543F0008FFF7AEF80B480C49CD
:103680000C4A002302E0D458C4500433C4188C42BE
:10369000F9D3094A094C002301E013600432A24225
:1036A000FBD300F061F9FFF7C3FF70470000002073
:1036B00068000020404000086800002078040020D6
:1036C000FEE70000C3B2242B2DE9F0410D462AD8B5
:1036D0002C4A00F4E06452F823301C43621C4ED0A4
:1036E000294EC4F3031756F8273004F00F0823FAC5
:1036F00008F3DB0710D520462449FEF753FF18B323
:103700002046FEF779FC012256F8273002FA08F22B
:1037100023EA020346F82730052D1FD8DFE805F01D
:103720001F2B2527292D00F0C002C02A27D1C92B25
:1037300025D8174B00F03F0253F82220114B00F41C
:10374000E06453F82230C8E720461249FEF72AFF0A
:103750000028D8D02046FEF765FCD4E7FEE700211C
:103760002046BDE8F041FEF72DBF1021F8E72021EB
:10377000F6E70321F4E70121F2E70921F0E7BDE8CC
:10378000F08100BF543F00081C030020083F0008E0
:103790002C3F0008803C0008FEF770BC08B5044BC5
:1037A0002BB10448FFF776FC08B1AFF3008008BDE9
:1037B0000000000004020020FEF7ACBC024B0146F2
:1037C000186800F02DB800BF18000020024B014619
:1037D000186800F0FDB800BF1800002070B50F4E4B
:1037E0000C463168054611B900F0AEF8306021464C
:1037F000284600F0A9F8431C03D14FF0FF342046BF
:1038000070BDC41C24F00304A042F8D0211A28463D
:1038100000F09AF80130F2D1EFE700BF300300204A
:103820002DE9F843CD1C25F0030508350C2D38BFD4
:103830000C25002D064601DBA94204D90C23336078
:103840000020BDE8F883DFF8D48000F069F8D8F8EC
:1038500000301C4644BB29463046FFF7BFFF431CDF
:10386000044658D1D8F800402746002F43D1002CF9
:103870004BD023683946304604EB030900F064F866
:10388000814542D1216830466D1A2946FFF7A6FFCF
:1038900001303AD023682B442360D8F800305A68AE
:1038A00062BBC8F800700FE02268521B20D40B2ABC
:1038B00017D96119A342256018BF5960636808BF12
:1038C000C8F8001062514B60304600F02FF804F148
:1038D0000B00231D20F00700C21A1CBF1B1AA350A7
:1038E000AFE76268A3420CBFC8F800205A60EBE75C
:1038F00023466468AEE73C467F68B6E71A465B68D5
:10390000A342FBD100235360DEE70C233046336033
:1039100000F00CF894E70560D6E700BF3403002000
:10392000014800F045B800BF74040020014800F0D1
:1039300040B800BF7404002003460244934200D103
:10394000704703F8011BF9E738B50023054D04461D
:1039500008462B60FFF774FB431C02D12B6803B1B0
:10396000236038BD7004002070B500260C4D0D4B4F
:103970005B1B9C10A64209D1002600F0C1F80A4D3D
:103980000A4B5B1B9C10A64205D170BD55F8043B49
:1039900098470136EEE755F8043B98470136F2E7C1
:1039A0002440000824400008244000083840000853
:1039B000704770470A44914200F1FF3300D17047CD
:1039C00010B511F8014B914203F8014FF9D110BD28
:1039D00038B50546002940D051F8043C0C1F002B97
:1039E000B8BFE418FFF79CFF1C4A136833B9636043
:1039F00014602846BDE83840FFF798BFA34208D9B5
:103A0000206821188B4201BF19685B680918216082
:103A1000EDE71A465B680BB1A342FAD9116850185A
:103A2000A0420BD120680144501883421160E0D1BC
:103A300018685B68084410605360DAE702D90C2309
:103A40002B60D6E7206821188B4201BF19685B689C
:103A50000918216063605460CBE738BD340300204F
:103A6000062008B500F02CF80120FFF707FB1F29FE
:103A700038B505460C4604D9162303604FF0FF30D5
:103A800038BDC26B12B152F821304BB9284600F054
:103A900031F8224601462846BDE8384000F018B803
:103AA000012B0AD0591C03D1162303600120E7E73C
:103AB0000021204642F8241098470020E0E700004B
:103AC000024B01461868FFF7D2BF00BF1800002064
:103AD00038B50023064D0446084611462B60FFF713
:103AE000CFFA431C02D12B6803B1236038BD00BF5D
:103AF00070040020FFF7CCBA08B5FFF7B1FF000053
:103B0000F8B500BFF8BC08BC9E467047F8B500BFCA
:083B1000F8BC08BC9E4670479A
:103B180044757479204379636C653A200025000D5B
:103B28000A00020104030204081004004000000413
:103B3800010100000202000004040000080800005F
:103B4800101000002020000040400000808000008D
:103B5800010001040200020404000404080008042F
:103B6800100010042000200440004004800080045D
:103B78000000000001020304000000000000000033
:103B88000102030406070809000000000044004081
:103B9800120000000B000000003801401200000075
:103BA8001D00000000480040120B00001D0100002D
:103BB80000480040120A0000FFFFFFFF000000005D
:103BC800000000000100000000440040120800004E
:103BD8000C00000000380140120000001E00000028
:103BE80000480040120000001E010000004800408C
:103BF800120A0000FFFFFFFF0000000000000000A5
:103C08000300000000440040100800000A00000003
:103C1800003801401006000017000000003801407D
:103C2800100500001B0000000048004010000000C4
:103C3800FFFFFFFF0000000000000000020000007E
:103C4800004400401208000009000000003801404C
:103C5800120600001600000000380140120500009E
:103C68001A0000000048004012000000FFFFFFFF9C
:103C780000000000000000000000000000000040FC
:103C880012800000000100000000004012900000B7
:103C980001000000000000401212010001010000B4
:103CA8000000004012100100020000000000004067
:103CB8001292010002010000000000401291010070
:103CC800020200000040014012A6000003000000AC
:103CD8000000004012120200030100000000004032
:103CE80012110200030200000040014012260100E8
:103CF80006000000000400401295000006010000C4
:103D08000044014012A7000007000000002C0140F9
:103D1800128D100007010000000400401215010078
:103D2800070200000048014012A900000800000036
:103D3800002C0140128E000008010000002C0140F8
:103D4800128D000009000000002C0140120E010035
:103D580009010000002C0140120D01000A000000BA
:103D6800002C0140128E01000A010000002C0140C5
:103D7800128D01000B000000002C0140120E020001
:103D88000B010000002C0140120D02000F00000082
:103D980000000040129100000F01000000000040E8
:103DA800128F000010000000002C0140120D1100BD
:103DB80010010000000400401295010010020000EC
:103DC800000400401294010011000000002C014082
:103DD800128D1100110100000004004012150200AC
:103DE8001102000000040040121402001300000039
:103DF8000000004012110100130100000000004003
:103E0800120F01001400000000040040129400008A
:103E18001500000000040040121401001600000004
:103E280000080040129700001601000000440140FD
:103E3800128010001700000000080040121701004F
:103E4800170100000048014012801000180000000F
:103E580000080040129701001801000000440140CA
:103E680012A8000019000000000800401217020004
:103E7800190100000048014012AA00001A000000C1
:103E880000000040129001001A01000000000040EC
:103E9800128F01001B0000000000004012100200F9
:103EA8001B01000000000040120F02001D0000006E
:103EB800002C0140128E10001E000000002C014052
:103EC800120E11001E0100000040014012A5000062
:103ED8001F000000002C0140128E11001F0100007D
:103EE80000400140128010001F0200000040014005
:103EF80012250100FFFFFFFF000000000000000086
:103F08000400000000740040038000000500000069
:103F18000074004003000100FFFFFFFF00000000E5
:103F28000000000000000000010000000200000086
:103F38000300000004000000050000000600000067
:103F48000700000010000000110000000000000041
:103F5800010000000200000003000000040000004F
:103F6800050000000600000007000000080000002F
:103F7800090000000A0000000B0000000C0000000F
:103F88000D0000000E0000000F00000010000000EF
:103F980011000000120000001300000014000000CF
:103FA80015000000160000001700000018000000AF
:103FB800190000001A0000001B0000001C0000008F
:103FC8001D0000001E0000001F0000002D00000062
:103FD8002E0000002F00000030000000310000001B
:103FE80006000700080000000000000000000000B4
:103FF800DB30000889310008BF300008D5320008DE
:1040080095300008BD340008A5300008CF350008F9
:04401800F135000876
:08401C00B4C1FF7F01000000A8
:10402400213600080502000865040008D1210008B3
:04403400ED3400085F
:08403800E1010008A9220008C3
:104040000A010000100000000030024000000000E3
:1040500000127A00780400201C00002000000000FC
:1040600038030020A0030020080400200000000006
:104070000000000000000000000000000000000040
:104080000000000000000000000000000000000030
:104090000000000000000000000000000000000020
:0840A000000000000000000018
:040000050800367940
:00000001FF
