:020000040800F2
:1000000000C00020093B0008513B0008513B00089C
:10001000513B0008513B0008513B00080000000024
:10002000000000000000000000000000513B00083C
:10003000513B000800000000513B0008D724000895
:10004000513B0008513B0008513B0008513B000860
:10005000513B0008513B0008C5250008CB2500088E
:10006000D1250008D7250008DD250008513B0008F0
:10007000513B0008513B0008513B0008513B000830
:10008000513B0008513B0008513B0008513B000820
:10009000513B0008513B0008513B0008E325000894
:1000A000513B0008C1210008513B0008D521000840
:1000B000D9210008ED21000801220008513B000869
:1000C000513B0008513B0008513B0008513B0008E0
:1000D000513B0008F9330008113400082D340008A2
:1000E0000B260008513B0008513B0008513B00081B
:1000F00051220008513B000865220008513B0008CE
:10010000513B0008513B000815220008513B0008F4
:100110004934000861340008292200083D22000803
:10012000513B0008513B0008513B0008513B00087F
:1001300000000000000000000000000000000000BF
:1001400000000000000000000000000000000000AF
:10015000000000000000000000000000000000009F
:10016000000000000000000000000000000000008F
:10017000000000000000000000000000000000007F
:10018000000000000000000000000000000000006F
:10019000000000000000000000000000000000005F
:1001A000000000000000000000000000000000004F
:1001B000000000000000000000000000000000003F
:1001C000000000000000000000000000000000002F
:1001D000000000000000000000000000000000001F
:0401E0005FF8E0F1F3
:1001E400034613F8012B002AFBD1181A0138704773
:1001F40010B5054C237833B9044B13B10448AFF35D
:1002040000800123237010BD68000020000000005E
:10021400903F000808B5034B1BB103490348AFF3F3
:10022400008008BD000000006C000020903F000822
:1002340073B5002506224FF4E131444803F040FB36
:100244000121C02003F084FC0121C12003F080FCC3
:100254000121C22003F07CFC0121C32003F078FCBF
:100264000121C6203A4C03F073FC0121C72003F09E
:100274006FFC00952068C0230422012101F00EFECA
:1002840000952068C1230422022101F007FE009595
:100294002068C2230422032101F000FE04220095F9
:1002A400C3231146206801F0F9FD2068482101F0BC
:1002B40043FE2A4640F2E7312068264E01F00AFF49
:1002C400206801F010FD00953068C6230422012146
:1002D40001F0E4FD0095C72304223068022101F0F7
:1002E400DDFD3068482101F027FE2A4640F2E7315F
:1002F400306801F0EFFE306801F0F5FC20688323DC
:100304001922012101F00CFF2068832332220221EB
:1003140001F006FF206883234B22032101F000FF34
:10032400206883230A22042101F0FAFE3068832323
:100334001E22012101F0F4FE83233C2202213068B5
:1003440002B0BDE8704001F0EBBE00BF080200201F
:100354008C0000208800002070B503F063FC254E5B
:100364003368C01AB0F57A7F43D96423224C234DF5
:10037400227828680A32B2FBF3F103FB11228323AB
:100384000121227001F0CCFE227828688323022107
:10039400C2F1640201F0C4FE286883230321227899
:1003A40001F0BEFE22782868154D83230421C2F192
:1003B400640201F0B5FE832301212278286801F04C
:1003C400AFFE22788323C2F164020221286801F07F
:1003D400A7FE0C490C4803F0E9FA0A2221780A48DE
:1003E40003F024FB0949084803F0F6FA03F01AFC69
:1003F400306070BD84000020000000208C000020CC
:1004040088000020A83F000808020020B53F00082B
:1004140010B5B02001F07BFF04464FF0804101F09D
:1004240027FF064BB0201C6001F071FF044604490D
:1004340001F01EFF034B1C6010BD00BF8C000020A8
:1004440000040040880000207047000038B50E4BBF
:1004540005461A784FF47A73B3FBF2F30B4A10682B
:10046400B0FBF3F000F09CF8044658B90F2D09D8FE
:10047400024629464FF0FF3000F042F82046044B74
:100484001D6038BD0120FCE70100002010000020A1
:1004940004000020074A08B51368032043F0100342
:1004A400136000F01BF80020FFF7D0FFFFF7CCFF2C
:1004B400002008BD00200240034A044B11681B7849
:1004C4000B441360704700BF90000020010000201F
:1004D400014B1868704700BF9000002007490302D1
:1004E400CA6803F4E06322F4E0621204120C1343BA
:1004F40043F0BF6343F40033CB60704700ED00E08A
:10050400154B30B5DC68C4F30224C4F10703251D80
:10051400042B28BF0423062D4FF0FF3594BF00247D
:10052400033C05FA03F321EA0303A54022EA05028A
:10053400A340002843EA0203ACBF00F16040074A2D
:100544004FEA0313DBB2ABBF00F5614000F00F00CC
:1005540080F80033135430BD00ED00E014ED00E0EA
:10056400002807DB01234109034A00F01F008340F0
:1005740042F82130704700BF00E100E000280CDBA6
:1005840001220649430900F01F008240203341F84C
:100594002320BFF34F8FBFF36F8F704700E100E05C
:1005A4000138B0F1807F0BD24FF0E023F021054AEF
:1005B400586182F823100020072298611A6170475D
:1005C4000120704700ED00E0002808DB0122430908
:1005D400034900F01F008240603341F82320704734
:1005E40000E100E0704708B5FFF7FCFF08BD704765
:1005F40010B5044650B1437903F0FF0213B90271F8
:10060400FFF7F5FF01230020637110BD0120FCE713
:1006140010B5044640B10223037101F0FFFE00202F
:1006240020616071207110BD0120FCE7012310B529
:1006340058B1046801F01001226803FA01F122EABA
:10064400010222600371002010BD1846FCE790F8F7
:1006540021200346022A06D00422826301200022BC
:1006640083F8202070470268C06B116821F00E01E6
:100674001160116821F00101116001211A6C01FA65
:1006840002F24260002083F82110E8E708B590F8F0
:100694002130022B03D004238363012008BD0368A7
:1006A4001A6822F00E021A601A6822F001021A6017
:1006B400284A934224D902F56272934219D0143223
:1006C400934218D01432934217D01432934214BF79
:1006D4004FF480334FF480531F4A5360012380F852
:1006E4002130002380F82030436B03B19847002069
:1006F400D4E70123F0E71023EEE74FF48073EBE730
:1007040016498B4216D014318B4215D014318B42CA
:1007140014D014318B4214D014318B4214D01431C0
:100724008B4214D0934214BF4FF480334FF0807344
:100734000B4AD2E70123FBE71023F9E74FF4807358
:10074400F6E74FF48053F3E74FF48033F0E74FF4C8
:100754008013EDE7800002400004024008000240DC
:1007640000000240044A08B55169014202D05061B8
:1007740001F010FF08BD00BF000401402DE9F34162
:10078400054638B30368DB0710D42B689F075ED493
:100794002B68190700F195802B685A0700F1C18076
:1007A400EB69002B40F02C81002029E0904C636819
:1007B40003F00C03042B07D0636803F00C03082B2D
:1007C4000AD16368DE0307D523689C03DDD56B6813
:1007D400002BDAD1012013E06B68B3F5803F12D10E
:1007E400236843F480332360FFF772FE06462368D0
:1007F4009803CAD4FFF76CFE801B6428F7D9032042
:1008040002B0BDE8F0819BB9236823F480332360F0
:10081400236823F480232360FFF75AFE06462368E7
:100824009903B2D5FFF754FE801B6428F7D9E6E795
:10083400B3F5A02F236803D143F480232360CFE7CB
:1008440023F480332360236823F48023CBE7684CAC
:10085400636813F00C0F07D0636803F00C03082BD4
:1008640010D16368DA030DD423689B0702D52B6982
:10087400012BAFD123686A6923F0F80343EAC2036A
:10088400236085E72A695B4B6AB101221A60FFF78E
:100894001FFE064623689F07ECD4FFF719FE801B52
:1008A4000228F7D9ABE71A60FFF712FE0646236861
:1008B40098077FF56DAFFFF70BFE801B0228F6D972
:1008C4009DE7AA694A4E4B4BE2B10122C3F880244A
:1008D400FFF7FEFD0446736A9B070DD54FF4FA52E9
:1008E400454B1B68B3FBF2F3019300BF019B5A1EF7
:1008F4000192002BF9D14FE7FFF7EAFD001B022814
:10090400E9D97CE7C3F88024FFF7E2FD0446736A63
:100914009F077FF541AFFFF7DBFD001B0228F6D9E7
:100924006DE7334CE369D80024D40127E36943F02D
:100934008053E361E36903F080530093009B2F4EDF
:100944003368D90518D5EB68012B26D1236A43F007
:1009540001032362FFF7BCFD41F288380646236A8F
:100964009B073FD5002F3FF41BAFE36923F080536F
:10097400E36115E70027E2E7336843F480733360EB
:10098400FFF7A6FD80463368DA05DCD4FFF7A0FD47
:10099400A0EB08006428F6D931E7ABB9236A41F229
:1009A400883823F001032362236A23F004032362BB
:1009B400FFF78EFD0646236A9807D3D5FFF788FD17
:1009C400801B4045F7D91AE7052B236A03D143F06E
:1009D40004032362BAE723F001032362236A23F0AA
:1009E4000403B6E7FFF774FD801B4045B7D906E75B
:1009F400001002400000424210000020007000403D
:100A04002A4C626802F00C02082A3ED00022022B13
:100A1400274B1A662CD1FFF75BFD06462368990124
:100A240020D42B6AB3F5803F05D16268A96822F40B
:100A340000320A436260696A62680B4322F47412EA
:100A44001343012263601A4B1A66FFF741FD054602
:100A540023689A013FF5A8AEFFF73AFD401B022830
:100A6400F6D9CCE6FFF734FD801B0228D6D9C6E6BA
:100A7400FFF72EFD054623689B017FF595AEFFF732
:100A840027FD401B0228F6D9B9E6012B3FF4A2AE9C
:100A940060682B6A00F480329A427FF49BAE6B6AE2
:100AA40000F47010C01A18BF0120A9E6001002401B
:100AB400000042420D4A536803F00C01082912D188
:100AC4000B48C3F38341DB03405C09D55368094AEF
:100AD400C3F340435043084AD35CB0FBF3F0704780
:100AE400064B584370470348704700BF001002404C
:100AF400BC3F000800127A00BA3F000800093D001C
:100B04002DE9F0410D46044610B90120BDE8F081FD
:100B1400444A136803F007038B4228D321688E07E5
:100B240030D4CA0743D43F4A136803F00703AB42E7
:100B340065D822683C4D12F0040F6CD1130706D51A
:100B44006B68226923F4605343EAC2036B60FFF7C6
:100B5400B1FF6B68354AC3F30313D35CD840344BFD
:100B64001860344B1868FFF771FC0020CEE7136857
:100B740023F007030B431360136803F007038B424E
:100B8400C3D1CBE7284B11F0040F1EBF5A6842F4BF
:100B9400E0625A60080742BF5A6842F460525A60E1
:100BA4005A68A06822F0F00202435A60B9E762680A
:100BB4001D4E012A33681AD113F4003FA5D073687F
:100BC40041F2883823F0030313437360FFF780FC7A
:100BD40007467368626803F00C03B3EB820FA2D07C
:100BE400FFF776FCC01B4045F3D903208EE7022AA9
:100BF40002D113F0007FE1E713F0020FDEE7136880
:100C040023F007032B431360136803F00703AB427D
:100C14007FF47BAF8DE76B68E16823F4E0630B43FB
:100C24006B608BE700200240001002402440000863
:100C34001000002004000020044B054A5B68C3F345
:100C44000223D35C034A1068D84070470010024066
:100C54001C40000810000020044B054A5B68C3F3E5
:100C6400C223D35C034A1068D84070470010024086
:100C74001C400008100000200F2303600B4B5A682F
:100C840002F0030242605A6802F0F00282605A687D
:100C940002F4E062C2605B68DB0803F4E0630361B2
:100CA400034B1B6803F007030B60704700100240FE
:100CB40000200240036A026A70B522F00102026257
:100CC400446882690D6822F073022A438D6823F018
:100CD40002032B430C4DA84203D005F50065A8423E
:100CE4000BD1CD6823F008032B4324F44074D1E9DD
:100CF4000556354323F004032C43446082614A685B
:100D04004263036270BD00BF002C0140036A026AA3
:100D140070B522F4807202624468C2690D6822F0E0
:100D240073022A438D6823F4007343EA05230D4DAF
:100D3400A84203D005F50065A8420DD1CD6823F47F
:100D4400006343EA052324F44054D1E905563543AE
:100D540023F4806344EA05144460C2614A68C263B0
:100D6400036270BD002C0140036A026A30B522F4AC
:100D7400805202624468C2690D6822F4E64242EA83
:100D840005228D6823F4005343EA0533084DA84235
:100D940003D005F50065A84204D14D6924F48044CC
:100DA40044EA85144460C2614A680264036230BD47
:100DB400002C014090F83D30012B24D10223134A2A
:100DC40080F83D300368934212D002F500629342EA
:100DD4000ED0B3F1804F0BD0A2F59832934207D0D6
:100DE40002F58062934203D002F58062934204D1FB
:100DF4009A6802F00702062A03D01A6842F0010238
:100E04001A60002070470120704700BF002C014089
:100E140090F83C200346012A4FF0020009D01A68DA
:100E240083F83D0051610020012283F83C0083F8DF
:100E34003D20704770477047036870B5DD681E69D0
:100E44000446B1070DD5AA070BD56FF002021A614B
:100E5400012202779B699B0769D001F056FA0023AF
:100E64002377710710D56A070ED56FF00402236843
:100E740020461A61022222779B6913F4407F5CD0DA
:100E840001F043FA0023237733070FD528070DD544
:100E94006FF00802236820461A6104222277DB6976
:100EA400990750D001F031FA00232377F20610D5C8
:100EB400EB060ED56FF01002236820461A61082253
:100EC4002277DB6913F4407F43D001F01EFA00233C
:100ED4002377F00708D5E90706D56FF001022368E8
:100EE40020461A6101F0EEF9320608D52B0606D524
:100EF4006FF08002236820461A6100F034FB70060C
:100F040008D5690606D56FF04002236820461A61A9
:100F1400FFF791FFB20622D5AB0620D56FF0200271
:100F240023682046BDE870401A6100F01BBB01F045
:100F3400EAF92046FFF77EFF91E701F0E4F9204645
:100F4400FFF778FF9EE701F0DEF92046FFF772FF16
:100F5400AAE701F0D8F92046FFF76CFFB7E770BDA8
:100F64001D4A0368904212D002F5006290420ED0EE
:100F7400B0F1804F0BD0A2F59832904207D002F521
:100F84008062904203D002F58062904207D14A68A1
:100F940023F070031343CA6823F4407313434A696C
:100FA40023F08003134303608B68C3620B6883627E
:100FB400094B984203D003F50063984201D10B69B1
:100FC4000363012343610369DB0742BF036923F021
:100FD40001030361704700BF002C014010B50446B3
:100FE40030B390F83D3003F0FF021BB980F83C2089
:100FF40001F096FF0223206884F83D30211DFFF79D
:10100400AFFF0123002084F8463084F83E3084F892
:101014003F3084F8403084F8413084F8423084F81A
:10102400433084F8443084F8453084F83D3010BDB2
:101034000120FCE7036A026A70B522F01002026222
:10104400446882690D6822F4E64242EA05228D680A
:1010540023F0200343EA05130D4DA84203D005F500
:101064000065A8420DD1CD6823F0800343EA05133F
:1010740024F44064D1E90556354323F0400344EA9F
:101084008504446082614A688263036270BD00BF64
:10109400002C014010B590F83C300446012B1DD0C3
:1010A400082A17D007D862B1042A0FD001200023E0
:1010B40084F83C3010BD0C2AF8D10068FFF754FEC8
:1010C40002E00068FFF7F6FD0020F0E70068FFF794
:1010D400B1FFF9E70068FFF719FEF5E70220E9E739
:1010E40038B590F83C300446012B4FD00120082A33
:1010F40084F83C003AD006D8BAB1042A26D000239A
:1011040084F83C3038BD0C2AF9D12068FFF72CFE56
:10111400C3690A6943F40063C361C36923F4806348
:10112400C361C36943EA02232EE02068FFF7C2FDCE
:1011340083690A6943F008038361836923F0040324
:1011440083618369134383610020D8E72068FFF734
:1011540071FF83690A6943F400638361836923F43B
:1011640080638361836943EA0223ECE72068FFF725
:10117400CDFDC3690A6943F00803C361C36923F061
:101184000403C361C3691343C361DDE70220B9E704
:1011940070B5056A046A154E24F001040462B04275
:1011A40084691ED006F50066B0421AD0B0F1804FB3
:1011B40017D0A6F59836B04213D006F58066B04233
:1011C4000FD006F58066B0420BD044F0010263F301
:1011D400071201F00A0125F00A0319438261016232
:1011E40070BD24F003042243F1E700BF002C01404A
:1011F400F8B590F83C300546012B0C4600F0818090
:101204000120082A85F83C005BD006D842B3042AA2
:1012140035D0002385F83C30F8BD0C2AF9D1D1E94A
:1012240000272B68CE68186A196A120321F48051CA
:101234001962D96920F4005021F4407141EA072170
:1012440002F4005266F30F310243D9611A62DA697B
:10125400A16822F44062DA61DA6942EA01224EE0CE
:101264002868CB6806C9FFF793FF8369A26823F057
:101274000C0383618369134383610020C9E72B68EE
:10128400D1E90027186ACE68196A120121F0100109
:101294001962996920F0A00021F4407141EA072104
:1012A40002F0A00266F30F31024399611A629A694F
:1012B400A16822F440629A619A6942EA01229A6121
:1012C400DBE72B68D1E90021186A1E6AE76826F477
:1012D40080761E62DE69120226F00306314320F492
:1012E400007002F4007267F307110243D9611A62B5
:1012F400DA69A16822F00C02DA61DA690A43DA6178
:10130400BBE7022088E710B50124036A01F01F013E
:101314008C4023EA04030362036A8A401A4302628C
:1013240010BD000008B529B990F83E30012B1ED03D
:10133400012034E0042907D190F83F30012BF7D184
:10134400022380F83F3015E008290CBF90F84030A4
:1013540090F84130013B18BF0123002BE8D1022350
:1013640008290CBF80F8403080F8413002E00223A5
:1013740080F83E3000680122FFF7C5FF124B984207
:1013840003D003F5006398420AD1436C43F400434D
:101394004364836803F00703062B0FD1002008BDC4
:1013A400B0F1804FF5D0094B9842F2D003F5806339
:1013B4009842EED003F580639842EAD0036843F084
:1013C40001030360EAE700BF002C01400004004071
:1013D400FFF7A8BF08B5034689BB90F83E0093F811
:1013E4004220C0B20128D2B256D1012A26D102220B
:1013F40000293AD183F83E2083F84220186801225C
:10140400FFF781FF254B984212D003F50063984201
:101414000ED0B0F1804F0BD0A3F59833984207D08B
:1014240003F58063984203D003F5806398422ED17C
:10143400836803F00703062B29D1002008BD042983
:1014440005D190F83F0093F84320C0B2CAE70829B9
:101454000BBF90F8400093F8410093F8442093F8B0
:1014640045200CBFC0B2C0B2BCE7042904D183F844
:101474003F2083F84320C1E708290BBF83F84020AD
:1014840083F8412083F8442083F84520B6E70368B5
:1014940043F001030360D0E70120CFE7002C0140B3
:1014A40010B50424036A01F00F018C4023EA0403FD
:1014B4000362036A8A401A43026210BD08B529B95F
:1014C40090F84230012B1DD0012046E0042907D1B9
:1014D40090F84330012BF7D1022380F8433014E015
:1014E400082907D190F84430012BEDD1022380F86C
:1014F40044300AE090F84530012BE5D1022380F80E
:10150400453002E0022380F8423000680422FFF7ED
:10151400C7FF436C43F400434364104B984212D01A
:1015240003F5006398420ED0B0F1804F0BD0A3F5C1
:101534009833984207D003F58063984203D003F5AB
:101544008063984204D1836803F00703062B03D019
:10155400036843F001030360002008BD002C014030
:10156400FFF7ACBF70477047026802F10C0353E801
:10157400003F23F490730C3242E8003102680029E2
:10158400F2D102F1140353E8003F23F0010302F106
:10159400140C4CE800310029F3D1036B012B0BD15F
:1015A40002F10C0353E8003F23F0100302F10C0C8A
:1015B4004CE800310029F3D1202380F84230002385
:1015C4000363704710B504460368C1681A6922F4BE
:1015D40040520A431A6182680069D968024360690B
:1015E40021F4B05121F00C0102430A43DA605A6934
:1015F400A16922F440720A435A610E4A934215D1FA
:10160400FFF72AFB19234343626820689200B3FB67
:10161400F2F36422B3FBF2F102FB11331B01323308
:10162400B3FBF2F303EB0113836010BDFFF704FB7C
:10163400E8E700BF00380140704710B5044648B3DE
:1016440090F8413003F0FF021BB980F84020FFF707
:10165400F3FF2423226884F84130D368204623F41E
:101664000053D360FFF7AEFF236800201A6922F409
:1016740090421A615A6922F02A025A61DA6842F4E5
:101684000052DA602023606484F8413084F84230E8
:10169400606310BD0120FCE710B5044668B390F800
:1016A400413003F0FF021BB980F84020FFF7C4FF6C
:1016B4002423226884F84130D368204623F400535D
:1016C400D360FFF77FFF236800201A6922F4904259
:1016D4001A615A6922F022025A615A6942F00802D8
:1016E4005A61DA6842F40052DA602023606484F8B4
:1016F400413084F84230606310BD0120FCE790F86B
:101704004130202B10D189B182B1C284828400235C
:10171400212201620168436480F84120CA681846A6
:1017240042F08002CA60704702207047012070476F
:1017340008B50023406AC385C38401F01DFE08BDBB
:10174400704790F8423007B5222B42D18168026875
:10175400B1F5805F836A3FD1016900293FD15268A6
:10176400C2F3080223F8022B8362C38D013B9BB2B0
:10177400C385002B2DD10268D16821F02001D160EE
:10178400D16821F48071D160516921F00101516166
:10179400202280F842204363026B012A026828D188
:1017A400036302F10C0353E8003F23F0100302F13A
:1017B4000C0C4CE800310029F3D11368DB0605D585
:1017C40001911368019353680193019B818DFFF785
:1017D400B7FF03B05DF804FB39B9016929B9526850
:1017E400D2B21A70836A0133BEE7526802F07F02F4
:1017F400F7E701F0BBFDECE7036873B51A6804462C
:101804001607D9685D6908D1960668D58D0666D530
:1018140002B0BDE87040FFF794BF05F0010001F489
:10182400907505435BD0D60705D5CD0542BF636CE3
:1018340043F001036364530704D518B1636C43F0A8
:1018440002036364960704D518B1636C43F0040380
:101854006364150707D501F0200303431EBF636CBF
:1018640043F008036364636C002B32D0920604D502
:101874008B0602D52046FFF764FF2668204673696D
:10188400626C03F0400302F0080253EA020522D01E
:10189400FFF76AFE73695E0618D5226802F1140325
:1018A40053E8003F23F04003143242E8003100299A
:1018B400F3D1E06B50B1744B4363FEF7E7FE40B1E4
:1018C400E06B436B02B0BDE870401847204601F05E
:1018D40053FD02B070BD01F04FFD6564F9E7206B64
:1018E400012840F09480D50640F19180C80640F16B
:1018F4008E80002201921A6801925A680192019A1C
:101904005A6952064DD5E16B0A68526892B2002AB0
:10191400DFD0A08D9042DCD9E2858A69202A36D0B6
:1019240003F10C0252E8002F22F4807203F10C0040
:1019340040E800210029F3D103F1140252E8002FFA
:1019440022F0010203F1140040E800210029F3D140
:1019540003F1140252E8002F22F0400203F11400B4
:1019640040E800210029F3D1202284F84220216399
:1019740003F10C0252E8002F22F0100203F10C00D4
:1019840040E800210029F3D1E06BFEF760FE02235A
:101994006363E38DA18DC91A89B22046FFF7D0FE97
:1019A40097E7E28DE18D92B289B2002991D0A18DA1
:1019B400891A89B200298CD003F10C0252E8002F55
:1019C40022F4907203F10C0545E800200028F3D1BD
:1019D40003F1140252E8002F22F0010203F114056E
:1019E40045E800200028F3D1202284F84220206317
:1019F40003F10C0252E8002F22F0100203F10C054F
:101A040045E800200028F3D102236363C5E71606E6
:101A140028D50D0626D594F84120212A7FF459AF04
:101A2400A168226AB1F5805F17D12169A9B932F89A
:101A3400021BC1F3080159602262E28C013A92B29E
:101A4400E284002A7FF445AFDA6822F08002DA608B
:101A5400DA6842F04002DA603BE7511C21621278F6
:101A64005A60EAE750067FF534AF4A067FF531AF96
:101A7400DA68204622F04002DA60202384F84130FC
:101A840001F077FC25E700BF3517000890F84030D7
:101A9400012B11D02423026880F84130D36823F04D
:101AA4000C0343F00803D360202380F84130002363
:101AB40080F84030184670470220704790F8403054
:101AC400012B11D02423026880F84130D36823F01D
:101AD4000C0343F00403D360202380F84130002337
:101AE40080F84030184670470220704790F8412033
:101AF40090F84200104370470023C28543642223B8
:101B04008285026980F84230816203681AB1DA681A
:101B140042F48072DA605A69002042F001025A618C
:101B2400DA6842F02002DA60704770B590F84260DB
:101B3400202E07D141B13AB100240463FFF7DCFF42
:101B4400204670BD0220FCE70120FAE7836810B547
:101B540004462BB10322014698470023C4E902330B
:101B640010BD836810B5044613B10322014698479B
:101B7400204610BD4B1E032B00D9FEE78900081F29
:101B8400704700000139435C13F0100004D00229AF
:101B940016D80C4A32F81100DB0712D503290FD8E6
:101BA400DFE801F00205080B40F00100704740F047
:101BB4001000704740F48070704740F480507047C4
:101BC400FEE77047D43F00080139032900D9FEE736
:101BD400014B585C704700BFD03F0008013903290E
:101BE40000D9FEE7014B585C704700BFCC3F0008AA
:101BF4002DE9F0410E460446FFF7BCFF06F1060846
:101C040005463146204604EB0818FFF7DDFFD8F8F7
:101C140008302BB1C24323691A61DA680243DA60DF
:101C2400771E04EB47039B880B2B49D8DFE803F0AE
:101C340051181818060618184A4A4A2AE35DDE069F
:101C440004D5294604F11000FFF78AFCE35DD807A8
:101C540036D5294604F11000BDE8F041FFF7B8BBC2
:101C6400E35DD90604D5294604F11000FFF726FCEC
:101C7400E35DDA0724D5294604F11000BDE8F041FC
:101C8400FFF750BB294604F11000FFF7A3FB3146D0
:101C94002046FFF7A3FF014606462046FFF772FFE2
:101CA40025692B6A1843D8F80830286243B13146B5
:101CB4002046FFF789FFC3432B61EB681843E860B4
:101CC400BDE8F081294604F11000BDE8F041FFF7BA
:101CD40081BB23691B68DB07F2D404F11000BDE863
:101CE400F041FFF767B870B5012504462946861C04
:101CF40036F8023F23B129462046FFF779FF002139
:101D04000135052DF4D1A36E3BB16FF001022369B7
:101D14001A61DA6842F00102DA6049B123691B688A
:101D2400DB0705D404F11000BDE87040FFF742B8AA
:101D340070BD00002DE9F0438DB0044698460F466F
:101D4400FFF718FF4FF6FF73164605930546236900
:101D5400C0B95B6B002206930123CDE902329DF8E2
:101D64005030CDE90922079208920B920192049314
:101D74000B2E1DD8DFE806F00F1545484A5355577A
:101D84005B596264042801D19B6BE3E708280CBF0C
:101D9400DB6B1B6CDEE705922A4605A904F11000F3
:101DA40004E010232A46059305A9E018FFF772F909
:101DB400013F04EB47039E8006B3B8F1FF3F1DD0FB
:101DC400404601F001F9A84264D140463249083E38
:101DD40000F0E2FE032E05D8404601F079FE002112
:101DE40001F0B6FE40462C4900F010FF10F4801FAD
:101DF4000CBF01221022E35D1343E3550DB0BDE88F
:101E0400F08320230593C7E73023FBE760232A46AA
:101E140005A904F110000593FFF762F9C8E77023E0
:101E2400F5E75023EEE74023ECE7022301932A462B
:101E340001A904F11000FFF7DBF9B9E70A23F5E77C
:101E44004046154900F0E2FE10F4801000D0FEE791
:101E5400012304F110092A46019001A9484602937E
:101E6400FFF7C6F939462046FFF7B8FE431EE25C89
:101E7400014642F00102E2540B2204EB43039A8030
:101E840002232046CDE90133FFF774FE01A902467F
:101E94004846D0E7FEE700BF6C41000870B4DCB2EE
:101EA400322C9DF80C5009D80E4E03F4E06356F81A
:101EB40024402343039570BCFFF73CBF03F0C006E6
:101EC400C02E0CD1CF2C0AD8074C03F03F0654F88F
:101ED4002660044C03F4E06354F82640E9E74FF02D
:101EE400FF33E7E788440008484400080121103024
:101EF400FEF78EBF0369186800F00100704710B543
:101F040002460C46FFF7F6FF80B9CB68DB070ED517
:101F1400CB68104623F00103CB60FFF7E7FF6FF0B7
:101F240001032361E36843F00103E36010BD10463D
:101F3400BDE81040FFF7DABF0B460169013B8B6235
:101F4400FFF7DDBF1B4B984221D0B0F1804F20D06A
:101F5400A3F5943398421ED003F5806398421CD0B5
:101F640003F5806398421AD003F58063984218D031
:101F740003F58063984216D003F59033984214D049
:101F84004FF6FF734FF6FF72934210D1FEE7002322
:101F9400F8E70120704702207047032070470420AF
:101FA40070470520704706207047072070470020BF
:101FB400704700BF002C0140014670B5044651F83B
:101FC400100FFFF7BFFF0546084600F0D9FE0023B7
:101FD400084A04F1600642F82530E36004F1B005D4
:101FE400B54204D0103D2846FFF7BBFDF8E7204674
:101FF40070BD00BF94000020F8B504460846FFF702
:10200400A1FF236903B1FEE71B4D04F10C0245F85F
:1020140020200E2204F110063046C4E90C33C4E932
:102024000E33C4E91033C4E91623216184F82C303B
:10203400A36484F84C3084F84D30E46000F01EFE54
:1020440004F1600504F1B00728461035FFF77EFD62
:10205400BD42F9D100234FF6FF72C4E90033C4E94D
:102064000632C4E90833A360636180233046A36267
:10207400BDE8F840FEF7B2BF9400002010B586B06A
:1020840014220446002101A801F09CFE00236946A5
:1020940001A80093FEF7F0FD206900F069FF012814
:1020A40002D002280FD0FEE7049CFEF7C5FDB4F56C
:1020B400C06F05D00BD824F48074B4F5806F00D1C0
:1020C400400006B010BD059CFEF7C6FDEFE7B4F571
:1020D400E06FF4E7012A38B505460C460BD0022A16
:1020E40016D004B1013C29692846CC62EC61BDE8F4
:1020F4003840FFF704BFFFF7C1FF084BB0FBF3F014
:1021040044432A69230C93620133B4FBF3F4E8E7F4
:10211400FFF7B4FFB0FBF4F4F3E700BF40420F0055
:10212400F8B5054614461A46FFF724FD2B69822AA2
:102134009E6A074606F1010629D01FD8102A11D835
:1021440052BB4FF6FF722969CB6A934203D1B4F5AF
:10215400803F08BF1C4637BB4C632846BDE8F840A7
:10216400FFF7CDBE812AECD12846FFF787FF124B3B
:10217400B0FBF3F06043B0FBF6F4E2E7832AE0D16E
:10218400DB6A03FB04436424B3FBF4F4D9E7284675
:10219400FFF774FF6643EEE7DB6A03FB04430124A5
:1021A4009440013CF0E7042F01D18C63D5E7082F5C
:1021B4000CBFCC630C64D0E740420F00034B18689B
:1021C40010B10430FEF738BE704700BF9400002001
:1021D400FFF7F4BF034B586810B10430FEF72CBE70
:1021E400704700BF94000020034B986810B104307E
:1021F400FEF722BE704700BF94000020034BD8684E
:1022040010B10430FEF718BE704700BF94000020E0
:10221400034B186910B10430FEF70EBE704700BFBF
:1022240094000020034B586910B10430FEF704BE3B
:10223400704700BF94000020034B986910B104302C
:10224400FEF7FABD704700BF94000020034BD86925
:1022540010B10430FEF7F0BD704700BF94000020B9
:10226400FFF7F4BF0022C0E90022C0E90222704750
:10227400F8B504460E4600F1600500F1B0072846A3
:102284001035FFF7EFFFBD42F9D100232046314658
:102294002361FFF7B1FE2046F8BD826810B50AB984
:1022A40001F070FEC368BDE81040184708B500B9D6
:1022B400FEE700F0E1FC0068836E13B16030FFF7C5
:1022C400ECFF08BDFFF7F2BF10B500B9FEE7037FCE
:1022D400013B072B10D8DFE803F004140F100F0F95
:1022E4000F12012400F0C8FC0068063400EB04104F
:1022F40083680BB1FFF7D1FF10BD0324F2E7042478
:10230400F0E70224EEE7FFF7DFBFFFF7DDBF01F0E0
:102314009BBC01F0A1BC000088B006285AD8DFE8B5
:1023240000F004111D2935414D002B4B2B489A69AF
:1023340042F004029A619B6903F004030193019B38
:1023440008B07047244B26489A6942F008029A6103
:102354009B6903F008030293029BF1E71E4B21489B
:102364009A6942F010029A619B6903F01003039387
:10237400039BE5E7184B1C489A6942F020029A61D6
:102384009B6903F020030493049BD9E7124B17487D
:102394009A6942F040029A619B6903F040030593F5
:1023A400059BCDE70C4B12489A6942F080029A6172
:1023B4009B6903F080030693069BC1E7064B0D4817
:1023C4009A6942F480729A619B6903F4807307935B
:1023D400079BB5E70020B3E7001002400008014066
:1023E400000C01400010014000140140001801409D
:1023F400001C01400020014008B5074900F006FC1C
:10240400C0F3C430012802D0022802D0FEE7002025
:1024140008BD1020FCE700BF244400080268094BF3
:102424009A420DD103F5CE331A6942F000521A6173
:102434001A6922F000521A61DA6922F00052DA6154
:10244400704700BF0074004010B5094986B00446C7
:1024540000F0BAFB019048B12046FFF7CDFF0146DA
:1024640001A8FEF7E3F801A8FEF7D2F806B010BD04
:1024740024440008F8B51349064600F0A5FBFFF70D
:1024840061FD114F054657F8203073B9B020FFF7AE
:102494003EFF0C490446304600F096FB01462046B8
:1024A400FFF7E6FE57F825301C601C6844B120464F
:1024B400FFF782FD2046BDE8F840B021FFF729BFB1
:1024C400F8BD00BF6C41000894000020FEF700B87E
:1024D400704708B5FDF7F0FFFEF785F8FFF7F8FF42
:1024E40008BD70470F4B84B0DA6942F08052DA615C
:1024F400DA6902F080520192019A9A6942F001026B
:102504009A619A6902F001020292029A5A6942F0AF
:1025140040025A615B6903F040030393039B04B0D8
:10252400704700BF001002400C4BD3F8FC20D201CE
:102534005EBFD3F8FC2042F08072C3F8FC20002276
:10254400074B5A601A6842F001021A6000BF00BFCC
:1025540000BF5868B0FA80F04009704700ED00E011
:10256400001000E008B5FFF7BDFFFFF7DDFFFDF742
:1025740091FFFFF7B6FF00F0A7FFBDE80840014850
:10258400FEF736B8080000200023C0E90033C0E994
:10259400023370470023012803F101020AD11422F7
:1025A400DBB25343054A181D1044816829B11A440B
:1025B4001369184713464008EDE77047B40000203C
:1025C4000120FEF7CFB80220FEF7CCB80420FEF7B6
:1025D400C9B80820FEF7C6B81020FEF7C3B808B57E
:1025E4002020FEF7BFF84020FEF7BCF88020FEF75D
:1025F400B9F84FF48070FEF7B5F8BDE808404FF421
:102604000070FEF7AFB838B506244FF48065A8B261
:10261400FEF7A8F8013C4FEA4505F8D138BD0000A3
:10262400344A08B51046062300F8043BFFF7ACFF14
:10263400072302F118001375FFF7A6FF082302F120
:102644002C0082F82830FFF79FFF092302F1400095
:1026540082F83C30FFF798FF0A23172102F1540057
:1026640082F85030FFF790FF02F1680082F864109E
:10267400FFF78AFF02F17C0082F87810FFF784FFED
:1026840002F1900082F88C10FFF77EFF02F1A400A3
:1026940082F8A010FFF778FF82F8B410282102F125
:1026A400B800FFF771FF02F1CC0082F8C810FFF701
:1026B4006BFF02F1E00082F8DC10FFF765FF02F126
:1026C400F40082F8F010FFF75FFF02F5847082F8DF
:1026D4000411FFF759FF02F58E7082F81811FFF705
:1026E40053FFBDE8084002F5987082F82C11FFF7FB
:1026F4004BBF00BFB400002038B5054CA4F5A0754D
:10270400143C201DFFF72DFAAC42F9D138BD00BFAF
:10271400F4010020A04B82B09A69013842F0010212
:102724009A619B6903F001030193019B2B2834D820
:10273400DFE810F02C0035003C00430048004F0057
:1027440054005B0060006700700075007C00850029
:102754008A0091009A00A300A800AF00B800BD0051
:10276400C400330033003300C900D000D500DC00BE
:10277400E100E800ED00F400F900FE0003010801A7
:102784000D0112011901200127012D01834A53680B
:1027940043F0E06343F00103536002B070477F4AA3
:1027A400536823F0010343F0E063F5E77B4A536881
:1027B40043F0E06343F00203EEE7784A536823F002
:1027C4000203F0E7754A536843F0E06343F00403FF
:1027D400E2E7724A536823F00403E4E76F4A53685C
:1027E40043F0E06343F00803D6E76C4A536823F0F0
:1027F4000803D8E7694A536843F0E06343F03003C1
:10280400CAE7664A536823F0300343F0E06343F0B9
:102814001003C1E7614A536823F03003C3E75F4AFA
:10282400536843F0E06343F0C003B5E75B4A536881
:1028340023F0C00343F0E06343F04003ACE7574A9E
:10284400536823F0C003AEE7544A536843F0E0638F
:1028540043F44073A0E7514A536823F4407343F0B0
:10286400E06343F4007397E74C4A536823F44073DE
:1028740043F0E06343F480738EE7484A536823F4DB
:10288400407390E7454A536843F0E06343F4406380
:1028940082E7424A536823F4406343F0E06343F41D
:1028A400006379E73D4A536823F440637BE73B4A7E
:1028B400536843F0E06343F480536DE7374A536849
:1028C40023F480536FE7354A536843F0E06343F4DD
:1028D400004361E7314A536823F4004363E72F4A16
:1028E400536843F0E06343F4803355E72B4A53685D
:1028F40023F4803357E7294A536843F0E06343F4F1
:10290400003349E7254A536823F400334BE7234A4D
:10291400536843F0E06343F480233DE71F4A536860
:1029240023F480233FE71D4A536843F0E16333E710
:102934001A4A536823F4002335E7184A536843F0CE
:10294400E26329E7154A536823F480132BE7134AFB
:10295400536823F0E0631FE7104A536823F0E063F1
:1029640043F0807318E70D4A536823F0E06343F0A3
:10297400007311E7094A536823F0E06343F080636E
:102984000AE7064AD36943F48063D36105E7034A3F
:10299400D36923F48063F8E700100240000001408B
:1029A40091FAA1F3B3FA83F370B50D0E0F2691FAE1
:1029B400A1F1B1FA81F144599B0006FA03F38900AD
:1029C40024EA03048A402243425170BD91FAA1F3E0
:1029D400B3FA83F370B50D0E042691FAA1F1B1FA9E
:1029E40081F144599B0006FA03F3890024EA0304A5
:1029F4008A402243425170BD431C04D00C3151F82B
:102A04000C3C5A1C01D100207047834201F10C0197
:102A1400F5D1012070470000431C2DE9F34106461F
:102A24000F4600D1FEE7594B00F00F02C0F303102C
:102A340001F0070853F82240FFF76EFCB8F1010FCC
:102A4400054615D194FAA4F3B3FA83F30321200EB7
:102A54002A589B0001FA03F322EA030294FAA4F32E
:102A6400B3FA83F39B00994011432950012213E0E8
:102A7400C7F30620B8F1030F0AD801A353F828F0CE
:102A8400972A0008712A0008FB2A0008092B00086D
:102A9400FEE7FFF73FFE08222146284608F1FF38EB
:102AA400FFF77EFFB8F1010F06D817F0080218BF30
:102AB40004222146FFF78AFF94FAA4F2230EB2FA05
:102AC40082F2E9580F239200934094FAA4F2B2FAE6
:102AD40082F2C7F301170B409200012F23FA02F38D
:102AE40012D0022F3BD0082B21D1042221462846A4
:102AF400FFF756FF1BE07F2801D10922CCE7FFF73F
:102B040009FEFAE70022C7E7042B04D10822214674
:102B14002846FFF745FF230A93FAA3F3B3FA83F297
:102B24000123E968934021EA14210B43EB60184B1D
:102B34009A6942F001029A619B6903F001030193CF
:102B4400019BA6F10D03012B14D8124A536823F0FC
:102B5400E06343F08063536002B0BDE8F081042B6E
:102B640004D1082221462846FFF71AFFEB6823EA1E
:102B74001423DBE70F2E02D0133E012EECD8054AB6
:102B8400536823F0E06343F00073E4E7DC3F00089C
:102B94000010024000000140431C06D170478342EC
:102BA40002D18968FFF738BF0C310B685A1CF6D183
:102BB400FEE70B685A1C01D100207047834201D103
:102BC400486870470C31F4E7431C01D0FFF7F1BFAC
:102BD400002070474B6813B94FF0FF3070478342B1
:102BE40001D1086870470C31F4E708B1FFF7F2BF70
:102BF4004FF0FF30704703460868421C00D170470D
:102C0400984201D1886870470C31F5E7431C01D024
:102C1400FFF7F1BF704703468B42084604D01BB14F
:102C240000290CBF18460020704700000F4B1A689B
:102C340042F001021A6059680D4A0A405A601A6843
:102C440022F0847222F480321A601A6822F48022FC
:102C54001A605A6822F4FE025A604FF41F029A6006
:102C64004FF00062034B9A60704700BF00100240AF
:102C74000000FFF800ED00E0043870470368384AAC
:102C840088B0934218D102F56442916941F400611D
:102C94009161926902F400620092009A314A93426F
:102CA40017D1314BDA6942F01002DA61DB6903F0C3
:102CB40010030593059B43E0B3F1804F17D12A4AD3
:102CC400D16941F00101D161D26902F0010201929E
:102CD400019A264A934218D1234BDA6942F0200222
:102CE400DA61DB6903F020030693069B28E0204A9F
:102CF400934218D102F50332D16941F00201D16146
:102D0400D26902F002020292029A1A4A934217D13D
:102D1400154B9A6942F400529A619B6903F400537B
:102D24000793079B0CE0144A93420BD10E4BDA69CC
:102D340042F00402DA61DB6903F004030393039BAA
:102D440008B070470D4A9342A8D1074BDA6942F0A4
:102D54000802DA61DB6903F008030493049BEFE7DC
:102D6400002C0140001000400010024000140040FC
:102D7400000400400034014000080040000C004002
:102D84000368234A93420DD122498A6922F40062DE
:102D94008A61214A93420DD102F50032D36923F0AE
:102DA40010032AE0B3F1804F0DD11A49CA6922F009
:102DB4000102CA61194A93420DD102F5FE32D36968
:102DC40023F0200319E0164A93420ED11149CA692F
:102DD40022F00202CA61134A934201BF02F55C4227
:102DE400936923F40053936170470F4A934206D1C9
:102DF40002F50232D36923F00403D36170470B4A0E
:102E04009342C6D102F50132D36923F00803F4E7F3
:102E1400002C01400010024000100040001400404B
:102E2400000400400034014000080040000C004051
:102E3400431C21D0194B984221D010D8A3F500632C
:102E440098421ED007D8B0F1804F1CD0A3F5806300
:102E540098421AD0FEE7124B984218D0FAE7114B69
:102E6400984216D003F50063984214D0A3F590332A
:102E74009842EFD1372070476FF00D00704736202D
:102E840070471E2070471C2070471D207047322059
:102E94007047192070472C20704700BF0010004075
:102EA400000C0040002C0140431C21D0194B9842D7
:102EB40021D010D8A3F5006398421ED007D8B0F1F2
:102EC400804F1CD0A3F5806398421AD0FEE7124BC2
:102ED400984218D0FAE7114B984216D003F50063D4
:102EE400984214D0A3F590339842EFD1372070471D
:102EF4006FF00D007047362070471E2070471C206D
:102F040070471D207047322070471B2070472E20C9
:102F1400704700BF00100040000C0040002C01402E
:102F240038B50446FFF7AAFE0068FFF781FFD4E92D
:102F34001212FDF7E5FA2068FFF77AFFFDF710FBA0
:102F440022681046FFF7B0FF05461046FFF770FFF2
:102F540085420BD0D4E912122846FDF7D1FA206835
:102F6400FFF7A2FFBDE83840FDF7FABA38BD00000C
:102F7400431C1FD0114B98421ED012D8A3F54063B6
:102F8400984219D005D820F48060B0F1804F13D056
:102F9400FEE70B4B98420FD003F5806398420BD0A9
:102FA400F6E7084B984203D003F500639842EFD14B
:102FB4000220704700207047012070470014004031
:102FC400000C0040002C014008B50649FFF71EFE26
:102FD400C0F3C430431E032B00D9FEE7800004383D
:102FE40008BD00BF6C4100082DE9F04F89B0984638
:102FF400129B04468A46406D7F4991460193FFF730
:10300400E3FD7E498346A06DFFF7DEFD7C4906465D
:10301400E06DFFF7D9FD7B490546206EFFF7D4FD2F
:103024000746BBF1000F00F0E480A26D013202D02C
:10303400002E00F0DE80E26D013202D0002D00F09F
:10304400D880226E013202D0002F00F0D2803146A7
:103054005846FFF7E0FD0346206020B90146FFF71C
:10306400DAFD0346206029461846FFF7D4FD3946A9
:103074002060FFF7D0FD2060002800F0BA80624B8A
:1030840098424CD103F55843DA6842F48042DA603E
:10309400DA6822F48042DA609A6942F480429A61E2
:1030A4009B6903F480430393039B2523A4F86430B2
:1030B4005149606DFFF770FD1EB15049A06DFFF7D7
:1030C4006BFD2DB14E49E06DFFF766FD4FF4807541
:1030D4002FB14C49206E45F40075FFF75DFD94F85F
:1030E40065204A4B271D43F8227023680022C4E957
:1030F400013A019B94F96400C4E904380C230121CA
:10310400C4E90635C4F80C902262FDF7F9F9384693
:10311400002E69D109B0BDE8F04FFEF7BDBA3C4BB3
:10312400984215D103F5E6331A6942F400321A6164
:103134001A6922F400321A61DA6942F40032DA615F
:10314400DB6903F400330493049B4FF49373ADE7FA
:10315400304B984215D103F5E4331A6942F48022C6
:103164001A611A6922F480221A61DA6942F480220F
:10317400DA61DB6903F480230593059B40F227237E
:1031840094E7254B984215D103F5E2331A6942F4CA
:1031940000221A611A6922F400221A61DA6942F4DF
:1031A4000022DA61DB6903F400230693069B4FF4E3
:1031B4004D737BE7194B98427FF47AAF03F5E03304
:1031C4001A6942F480121A611A6922F480121A618F
:1031D400DA6942F48012DA61DB6903F4801307933D
:1031E400079B40F2354361E709B0BDE8F04FFEF7B5
:1031F40024BA09B0BDE8F08F0C410008AC400008C7
:10320400704000083440000800380140F4010020F8
:103214000044004000480040004C00400050004082
:1032240010B4019C18B1019410BCFFF7DDBE10BCB2
:103234007047000008B5074B90F8652053F822004A
:10324400FEF754FC00F02200A0F12203584258413A
:1032540008BD00BFF401002008B5074B90F86520B5
:1032640053F82200FEF742FC00F02100A0F12103F4
:103274005842584108BD00BFF401002070B50E4605
:10328400054610B94FF0FF3070BDFFF7D3FF044679
:103294000028F7D1294611F8663F0122337095F8CA
:1032A4006500034B53F82000FEF73FFC2046EBE794
:1032B400F401002038B50D460446B8B1FFF7BAFF53
:1032C400A0B994F96400E564FDF758F994F8650031
:1032D400074B04F1660153F820000122FEF725FC98
:1032E40094F96400BDE83840FDF73AB938BD00BF31
:1032F400F401002038B515460446B8B1016590F9CB
:103304006400FDF73BF9B4F87630E16E9BB294F8B3
:1033140065001944064BAAB253F82000FEF7EFF9F2
:1033240094F96400BDE83840FDF71AB938BD00BF10
:10333400F401002048B1836D013306D190F8652073
:10334400024B53F82200FEF7A1BB7047F4010020A2
:1033540048B1836D013306D190F86520024B53F8D0
:103364002200FEF7ABBB7047F4010020836C0438E5
:103374001847C36C0438184730B5044650F804396C
:1033840085B01D6815F0010512D0002200921A685C
:1033940000925B680093009BFFF74CFF40BB012247
:1033A400204604F1620105B0BDE83040FEF7BDBB24
:1033B400196811F0020106D001951A6801925B6840
:1033C4000193019BE8E71A6812F0040206D0029107
:1033D4001A6802925B680293029BDDE71968090789
:1033E400DAD503921A6803925B680393039BD3E7CD
:1033F40005B030BD08B52520FDF7E6F8024B186886
:10340400BDE80840FEF7F8B9F4010020262008B50D
:10341400FDF7DAF8034B586818B1BDE80840FEF729
:10342400EBB908BDF4010020272008B5FDF7CCF85E
:10343400034B986818B1BDE80840FEF7DDB908BD34
:10344400F401002008B53420FDF7BEF8024BD8681B
:10345400BDE80840FEF7D0B9F401002008B53520D6
:10346400FDF7B2F8024B1869BDE80840FEF7C4B98D
:10347400F401002003460A4910B508680344EFF339
:103484000882934205D90C224FF0FF30054B1A6095
:1034940010BD054A054C121B9342F4D20B60F7E7AA
:1034A400140000207C04002000C000200004000060
:1034B400FEE700001622024B4FF0FF301A607047FF
:1034C4007C0400200120704710B590B02022002118
:1034D40007A800F077FC1422002101A800F072FC78
:1034E400102301220224CDE90A234FF4601306A815
:1034F40006940D940F93FDF741F900B1FEE70F23F5
:10350400CDE901344FF480630390CDE904302146C2
:1035140001A8FDF7F5FA00B1FEE710B010BDB0F850
:103524000831B0F80421981A00F03F007047B0F851
:103534000831B0F804219BB293421ABFD0F8FC3092
:10354400985C4FF0FF30704790F80631B0F80A01EC
:10355400C0B2834227BFC3F13F03C018C01A00F1B1
:10356400FF30704707B503688DF8071001225B68C8
:103574000DF10701984703B05DF804FB13B50DF195
:1035840007010446FFF77AFE88B9B4F87430B4F83A
:103594007020013303F03F03934208D0B4F8742041
:1035A4009DF80700A16E92B28854A4F8743002B05A
:1035B40010BD0000B0F87610826F10B50A4402F016
:1035C4003F02A0F87620B0F87610B0F8722089B2E5
:1035D4008A421AD0B0F876404032A4B2B0F87610DD
:1035E400121B544289B204F03F0402F03F02C1F1BD
:1035F400400158BF62428A4228BF0A460449826792
:10360400FFF778FE4FF0FF3010BD0020FCE700BF4D
:10361400B93500082DE9F843036804469B688846D9
:103624001646984701232374D4F8EC30B4F8067195
:1036340001338146C7F1400709D194F8103133B101
:10364400002304F1940084F81031FFF773FE23681B
:1036540020469B6898470028F9D03546BD4225D8B6
:103664004D4523D8B4F80631D4F800015A19402A3C
:10367400184430D82A46414600F0E2FB2F46B4F8FD
:1036840006311D4405F03F05A4F8065104F19405E4
:103694002846FFF7E1FD30B93A4628461549C4F8F3
:1036A4000C71FFF727FE3046BDE8F8834F4528BF6D
:1036B4004F4623683A4641465B682046984723684C
:1036C40020469B689847ED1BB844B4F806718146C0
:1036D400C7F14007C2E7C3F140073A46414600F04C
:1036E400AFFBD4F80001EA1B08EB070100F0A8FBCC
:1036F400C5E700BFB9350008C0F8F030009B91421F
:1037040008BF4FF0FF31C0F8F43000F11103C0F8E6
:10371400FC300023C0E93A2100F15102A0F808313D
:10372400C0E94023A0F80A317047037C70B5044611
:103734000D46A3B1FCF7CCFE0646B4F80621B4F856
:103744000A319BB29A420AD0002DF8D0FCF7C0FE91
:10375400801B8542F1D8B4F80A31A4F8063170BD53
:103764000021FFF7E2BF0000CBB2322B08D80E4A8B
:1037740001F4E06152F823301943C0F8EC107047AB
:1037840001F0C002C02A0CD1CF2B0AD8074B01F09C
:103794003F0253F82220044B01F4E06153F8223035
:1037A400EAE74FF0FF31E8E788440008484400089E
:1037B400CBB2322B08D80E4A01F4E06152F8233020
:1037C4001943C0F8E810704701F0C002C02A0CD1B8
:1037D400CF2B0AD8074B01F03F0253F82220044BA9
:1037E40001F4E06153F82230EAE74FF0FF31E8E7F3
:1037F400884400084844000873B54FF47A731646A9
:103804000022C0E901231D4B044603604FF0FF333F
:10381400C0F8EC301A4B0D46984215D1C321FFF77E
:10382400A3FFC221FFF7C4FF4FF0FF33012E08BFEF
:10383400C4F8EC3000932046D4E93A214FF0FF332A
:10384400FFF75AFF02B070BD0E4B0F499A680F4B39
:1038540053F82200FFF7B8F9854202D1C32120466C
:10386400DDE70B492846FFF7C0F90749C4F8EC0027
:103874002846FFF7BAF9C4F8E800D5E7644500081C
:1038840008020020484400080C410008884400084D
:10389400AC400008D0F8EC3010B5013304460ED12A
:1038A4000368DB68984794F8103143B9012304F1A5
:1038B400940084F81031BDE81040FFF749BD10BDF5
:1038C40073B5144602F00703023BDBB2042B80F805
:1038D400112196BF1A4A0022D25C04F03003302B27
:1038E4000546C0F8141107D14FF4C0630132082A09
:1038F40009D0092A1BD0FEE714F020031CD04FF492
:1039040080630132F3E70022C4F3C00405F1940696
:10391400640330460094FFF783FC2846FFF7BAFFA0
:103924003046084902B0BDE87040FFF7C3BC4FF40D
:103934008052E9E71A46E7E7082AFBD0DBE700BF35
:10394400544500088135000810B50446FFF7A2FF6E
:10395400B4F80821B4F8043192B29A4217BFD4F8EB
:10396400FC204FF0FF30D05C01331CBF03F03F0359
:10397400A4F8043110BD0000002202490248FFF7F8
:103984003BBF00BF004400400802002070B505465C
:103994000C46084649B1FCF723FC2B680246214635
:1039A4002846BDE870405B68184770BD08B5FFF74E
:1039B400EDFF08BD08B50249FFF7E8FF08BD00BFE9
:1039C400B73F000838B50546FFF7E0FF0446284630
:1039D400FFF7F0FF204438BDFFF7F4BF0023012AAE
:1039E40098BF0A2230B58BB00C468DF8243009A953
:1039F4002546B4FBF2F404FB1253DBB2092B94BF4B
:103A040030333733DBB2AA4201F8013DF0D9FFF776
:103A1400BDFF0BB030BD10B422B9026810BC1268EF
:103A2400C9B2104710BCD2B2FFF7D8BFFFF7F3BF3B
:103A340010B5044600F0F6F8E060236820465B69A0
:103A44009847002808DA00F0EDF8E368C01AA36884
:103A54009842F2D34FF0FF3010BDF8B507460D463B
:103A64000C468E18B44201D1601BF8BD3846FFF7EE
:103A7400DFFF431CF8D004F8010BF3E72DE9F04114
:103A84000746884616461D4673B100243846FFF79C
:103A9400CFFF431C05D0404503D030550134A54227
:103AA400F4D12046BDE8F0811C46FAE708B50320AE
:103AB400FCF714FDBDE8084000F0C4B808B5AFF346
:103AC4000080FCF7B5FBFCF747FC00F0ADF8FAE723
:103AD400C0F30312062A034610B50ED80020084A84
:103AE400D9B252F8044B8C4203D103F4E063184377
:103AF40010BD01303328F4D1FAE73320F8E700BFD2
:103B040088440008FFF792F80B480C490C4A00233C
:103B140002E0D458C4500433C4188C42F9D3094A7F
:103B2400094C002301E013600432A242FBD300F0ED
:103B340061F9FFF7C3FF7047000000206800002010
:103B4400AC4500086800002084040020FEE7000063
:103B5400C3B2322B2DE9F0410D462AD82C4A00F489
:103B6400E06452F823301C43621C4ED0294EC4F347
:103B7400031756F8273004F00F0823FA08F3DB077D
:103B840010D520462449FEF737FF18B32046FEF728
:103B94005BFC012256F8273002FA08F223EA0203FA
:103BA40046F82730052D1FD8DFE805F01F2B252701
:103BB400292D00F0C002C02A27D1CF2B25D8174BBE
:103BC40000F03F0253F82220114B00F4E06453F854
:103BD4002230C8E720461249FEF70EFF0028D8D04D
:103BE4002046FEF747FCD4E7FEE700212046BDE867
:103BF400F041FEF711BF1021F8E72021F6E7032179
:103C0400F4E70121F2E70921F0E7BDE8F08100BF04
:103C14008844000820030020244400084844000885
:103C24006C410008FEF752BC08B5044B2BB10448A4
:103C3400FFF775FC08B1AFF3008008BD0000000079
:103C440008020020FEF78EBC024B0146186800F003
:103C54002DB800BF18000020024B0146186800F080
:103C6400FDB800BF1800002070B50F4E0C46316837
:103C7400054611B900F0AEF830602146284600F040
:103C8400A9F8431C03D14FF0FF34204670BDC41C77
:103C940024F00304A042F8D0211A284600F09AF830
:103CA4000130F2D1EFE700BF3C0300202DE9F843D7
:103CB400CD1C25F0030508350C2D38BF0C25002D2F
:103CC400064601DBA94204D90C2333600020BDE879
:103CD400F883DFF8D48000F069F8D8F800301C4687
:103CE40044BB29463046FFF7BFFF431C044658D166
:103CF400D8F800402746002F43D1002C4BD023682E
:103D04003946304604EB030900F064F8814542D19A
:103D1400216830466D1A2946FFF7A6FF01303AD0D4
:103D240023682B442360D8F800305A6862BBC8F873
:103D340000700FE02268521B20D40B2A17D9611996
:103D4400A342256018BF5960636808BFC8F8001013
:103D540062514B60304600F02FF804F10B00231D34
:103D640020F00700C21A1CBF1B1AA350AFE76268F9
:103D7400A3420CBFC8F800205A60EBE723466468EE
:103D8400AEE73C467F68B6E71A465B68A342FBD1C0
:103D940000235360DEE70C233046336000F00CF858
:103DA40094E70560D6E700BF40030020014800F017
:103DB40045B800BF80040020014800F040B800BFAF
:103DC4008004002003460244934200D1704703F864
:103DD400011BF9E738B50023054D044608462B605E
:103DE400FFF748FB431C02D12B6803B1236038BDA5
:103DF4007C04002070B500260C4D0D4B5B1B9C1001
:103E0400A64209D1002600F0C1F80A4D0A4B5B1BFB
:103E14009C10A64205D170BD55F8043B9847013665
:103E2400EEE755F8043B98470136F2E79045000861
:103E34009045000890450008A44500087047704765
:103E44000A44914200F1FF3300D1704710B511F8D4
:103E5400014B914203F8014FF9D110BD38B5054625
:103E6400002940D051F8043C0C1F002BB8BFE418C3
:103E7400FFF79CFF1C4A136833B96360146028463B
:103E8400BDE83840FFF798BFA34208D9206821183D
:103E94008B4201BF19685B6809182160EDE71A4677
:103EA4005B680BB1A342FAD911685018A0420BD138
:103EB40020680144501883421160E0D118685B689F
:103EC400084410605360DAE702D90C232B60D6E76C
:103ED400206821188B4201BF19685B6809182160AA
:103EE40063605460CBE738BD40030020062008B56A
:103EF40000F02CF80120FFF7DBFA1F2938B505463E
:103F04000C4604D9162303604FF0FF3038BDC26B52
:103F140012B152F821304BB9284600F031F822464C
:103F240001462846BDE8384000F018B8012B0AD0F5
:103F3400591C03D1162303600120E7E70021204622
:103F440042F8241098470020E0E70000024B0146A5
:103F54001868FFF7D2BF00BF1800002038B500234F
:103F6400064D0446084611462B60FFF7A3FA431C8E
:103F740002D12B6803B1236038BD00BF7C0400204C
:103F8400FFF7A0BA08B5FFF7B1FF0000F8B500BF0E
:103F9400F8BC08BC9E467047F8B500BFF8BC08BC26
:043FA4009E4670477E
:103FA80044757479204379636C653A200025000DC7
:103FB8000A00010202030405060708090A0B0C0D92
:103FC8000E0F101002010403020408100400400040
:103FD80000040000010100000202000004040000C7
:103FE80008080000101000002020000040400000D9
:103FF800808000000100010402000204040004049F
:1040080008000804100010042000200440004004A8
:10401800800080040000000001020304000000008A
:104028000000000001020304060708090000000060
:1040380000440040120000000B000000003801405E
:10404800120000001D00000000480040120B000094
:104058001D01000000480040120A0000FFFFFFFF9A
:1040680000000000000000000100000000440040C3
:10407800120800000C000000003801401200000087
:104088001E00000000480040120000001E01000051
:1040980000480040120A0000FFFFFFFF0000000078
:1040A8000000000003000000004400401008000069
:1040B8000A00000000380140100600001700000048
:1040C80000380140100500001B00000000480040B7
:1040D800100000002B000000004C00401000000001
:1040E8002B01000000480040100A000032000000C8
:1040F8000050004010000000FFFFFFFF000000001C
:104108000000000002000000004400401208000007
:1041180009000000003801401206000016000000E7
:1041280000380140120500001A0000000048004055
:10413800120000002A000000004C0040120000009D
:104148002A01000000480040120A00002C0000006C
:104158000050004012000000FFFFFFFF00000000B9
:104168000000000000000000000000401280000075
:104178000001000000000040129000000002000052
:10418800000C004012800000010000000000004008
:10419800121201000101000000000040121001008D
:1041A80001020000000C00401200010002000000A3
:1041B80000000040129201000201000000000040CF
:1041C8001291010002020000000C00401280010060
:1041D800030000000000004012120200030100006A
:1041E800000000401211020003020000000C004011
:1041F80012000200060000000004004012950000B2
:1042080007000000002C0140128D1000070100007B
:1042180000040040121501000702000000340140AC
:104228001280100008000000002C0140128E0000CF
:1042380008010000002C0140128D00000900000058
:10424800002C0140120E010009010000002C014061
:10425800120D01000A000000002C0140128E01001E
:104268000A010000002C0140128D01000B00000023
:10427800002C0140120E02000B010000002C01402E
:10428800120D02000F000000000000401291000013
:104298000F01000000000040128F00001000000015
:1042A800002C0140120D1100100100000004004014
:1042B8001295010010020000000400401294010051
:1042C800100300000034014012001100110000002A
:1042D800002C0140128D1100110100000004004063
:1042E800121502001102000000040040121402001E
:1042F8001103000000340140128011001300000077
:1043080000000040121101001301000000000040ED
:10431800120F010014000000000400401294000075
:1043280015000000000400401214010016000000EF
:104338000008004012970000170000000008004025
:104348001217010018000000000800401297010031
:104358001900000000080040121702001A000000AF
:1043680000000040129001001A0100000000004007
:10437800128F01001B000000000000401210020014
:104388001B01000000000040120F02001D00000089
:10439800002C0140128E10001E000000002C01406D
:1043A800120E11001F000000002C0140128E110097
:1043B80026000000000400401293000026010000BF
:1043C8000034014012800000270000000004004073
:1043D80012130100270100000034014012000100FF
:1043E800280000000004004012930100280100008A
:1043F8000034014012800100290000000004004040
:1044080012130200290100000034014012000200CA
:10441800FFFFFFFF00000000000000000400000094
:104428000074004003800000050000000074004094
:1044380003000100FFFFFFFF000000000000000074
:10444800000000000100000002000000030000005E
:10445800040000000500000006000000070000003E
:1044680010000000110000002000000021000000E2
:1044780022000000230000002400000025000000A6
:10448800000000000100000002000000030000001E
:1044980004000000050000000600000007000000FE
:1044A80008000000090000000A0000000B000000DE
:1044B8000C0000000D0000000E0000000F000000BE
:1044C800100000001100000012000000130000009E
:1044D800140000001500000016000000170000007E
:1044E80018000000190000001A0000001B0000005E
:1044F8001C0000001D0000001E0000001F0000003E
:10450800200000002100000022000000230000001D
:1045180024000000250000002600000027000000FD
:1045280028000000290000002A0000002B000000DD
:104538002C0000002D0000002E0000002F000000BD
:1045480030000000310000003200000006000700C3
:1045580008000000000000000000000069350008A5
:10456800193600084D35000865370008233500085E
:104578004D390008333500085F3A0008813A0008D1
:084588005CBCFF7F0100000094
:10459000B13A000819020008150400082526000891
:0445A0007D39000859
:0845A400F5010008FD260008E6
:1045AC000A01000010000000003002400000000072
:1045BC0000127A00880400201C000020000000007B
:1045CC0044030020AC030020140400200000000071
:1045DC0000000000000000000000000000000000CF
:1045EC0000000000000000000000000000000000BF
:1045FC0000000000000000000000000000000000AF
:08460C000000000000000000A6
:0400000508003B09AB
:00000001FF
